{
  "_format": "hh-sol-artifact-1",
  "contractName": "DeploymentManager",
  "sourceName": "contracts/DeploymentManager.sol",
  "abi": [
    {
      "inputs": [],
      "stateMutability": "nonpayable",
      "type": "constructor"
    },
    {
      "inputs": [],
      "name": "AccessControlBadConfirmation",
      "type": "error"
    },
    {
      "inputs": [
        {
          "internalType": "address",
          "name": "account",
          "type": "address"
        },
        {
          "internalType": "bytes32",
          "name": "neededRole",
          "type": "bytes32"
        }
      ],
      "name": "AccessControlUnauthorizedAccount",
      "type": "error"
    },
    {
      "inputs": [
        {
          "internalType": "address",
          "name": "target",
          "type": "address"
        }
      ],
      "name": "AddressEmptyCode",
      "type": "error"
    },
    {
      "inputs": [
        {
          "internalType": "address",
          "name": "implementation",
          "type": "address"
        }
      ],
      "name": "ERC1967InvalidImplementation",
      "type": "error"
    },
    {
      "inputs": [],
      "name": "ERC1967NonPayable",
      "type": "error"
    },
    {
      "inputs": [],
      "name": "FailedCall",
      "type": "error"
    },
    {
      "inputs": [],
      "name": "InvalidInitialization",
      "type": "error"
    },
    {
      "inputs": [],
      "name": "NotInitializing",
      "type": "error"
    },
    {
      "inputs": [],
      "name": "ReentrancyGuardReentrantCall",
      "type": "error"
    },
    {
      "inputs": [],
      "name": "UUPSUnauthorizedCallContext",
      "type": "error"
    },
    {
      "inputs": [
        {
          "internalType": "bytes32",
          "name": "slot",
          "type": "bytes32"
        }
      ],
      "name": "UUPSUnsupportedProxiableUUID",
      "type": "error"
    },
    {
      "anonymous": false,
      "inputs": [
        {
          "indexed": false,
          "internalType": "address",
          "name": "sender",
          "type": "address"
        },
        {
          "indexed": false,
          "internalType": "address",
          "name": "origin",
          "type": "address"
        },
        {
          "indexed": false,
          "internalType": "address",
          "name": "directSender",
          "type": "address"
        }
      ],
      "name": "DebugMsgSender",
      "type": "event"
    },
    {
      "anonymous": false,
      "inputs": [
        {
          "indexed": true,
          "internalType": "address",
          "name": "oldFeeManager",
          "type": "address"
        },
        {
          "indexed": true,
          "internalType": "address",
          "name": "newFeeManager",
          "type": "address"
        }
      ],
      "name": "FeeManagerUpdated",
      "type": "event"
    },
    {
      "anonymous": false,
      "inputs": [
        {
          "indexed": false,
          "internalType": "uint64",
          "name": "version",
          "type": "uint64"
        }
      ],
      "name": "Initialized",
      "type": "event"
    },
    {
      "anonymous": false,
      "inputs": [
        {
          "indexed": true,
          "internalType": "uint256",
          "name": "projectId",
          "type": "uint256"
        },
        {
          "indexed": false,
          "internalType": "string",
          "name": "templateId",
          "type": "string"
        },
        {
          "indexed": false,
          "internalType": "address",
          "name": "moduleAddress",
          "type": "address"
        }
      ],
      "name": "ModuleDeployed",
      "type": "event"
    },
    {
      "anonymous": false,
      "inputs": [
        {
          "indexed": true,
          "internalType": "uint256",
          "name": "projectId",
          "type": "uint256"
        },
        {
          "indexed": true,
          "internalType": "address",
          "name": "owner",
          "type": "address"
        },
        {
          "indexed": false,
          "internalType": "string",
          "name": "name",
          "type": "string"
        }
      ],
      "name": "ProjectCreated",
      "type": "event"
    },
    {
      "anonymous": false,
      "inputs": [
        {
          "indexed": true,
          "internalType": "uint256",
          "name": "projectId",
          "type": "uint256"
        },
        {
          "indexed": true,
          "internalType": "address",
          "name": "owner",
          "type": "address"
        }
      ],
      "name": "ProjectDeleted",
      "type": "event"
    },
    {
      "anonymous": false,
      "inputs": [
        {
          "indexed": true,
          "internalType": "bytes32",
          "name": "role",
          "type": "bytes32"
        },
        {
          "indexed": true,
          "internalType": "bytes32",
          "name": "previousAdminRole",
          "type": "bytes32"
        },
        {
          "indexed": true,
          "internalType": "bytes32",
          "name": "newAdminRole",
          "type": "bytes32"
        }
      ],
      "name": "RoleAdminChanged",
      "type": "event"
    },
    {
      "anonymous": false,
      "inputs": [
        {
          "indexed": true,
          "internalType": "bytes32",
          "name": "role",
          "type": "bytes32"
        },
        {
          "indexed": true,
          "internalType": "address",
          "name": "account",
          "type": "address"
        },
        {
          "indexed": true,
          "internalType": "address",
          "name": "sender",
          "type": "address"
        }
      ],
      "name": "RoleGranted",
      "type": "event"
    },
    {
      "anonymous": false,
      "inputs": [
        {
          "indexed": true,
          "internalType": "bytes32",
          "name": "role",
          "type": "bytes32"
        },
        {
          "indexed": true,
          "internalType": "address",
          "name": "account",
          "type": "address"
        },
        {
          "indexed": true,
          "internalType": "address",
          "name": "sender",
          "type": "address"
        }
      ],
      "name": "RoleRevoked",
      "type": "event"
    },
    {
      "anonymous": false,
      "inputs": [
        {
          "indexed": true,
          "internalType": "address",
          "name": "user",
          "type": "address"
        },
        {
          "indexed": true,
          "internalType": "address",
          "name": "instance",
          "type": "address"
        },
        {
          "indexed": false,
          "internalType": "bytes32",
          "name": "templateId",
          "type": "bytes32"
        }
      ],
      "name": "TemplateDeployed",
      "type": "event"
    },
    {
      "anonymous": false,
      "inputs": [
        {
          "indexed": true,
          "internalType": "address",
          "name": "oldFactory",
          "type": "address"
        },
        {
          "indexed": true,
          "internalType": "address",
          "name": "newFactory",
          "type": "address"
        }
      ],
      "name": "TemplateFactoryUpdated",
      "type": "event"
    },
    {
      "anonymous": false,
      "inputs": [
        {
          "indexed": true,
          "internalType": "address",
          "name": "oldTierSystem",
          "type": "address"
        },
        {
          "indexed": true,
          "internalType": "address",
          "name": "newTierSystem",
          "type": "address"
        }
      ],
      "name": "TierSystemUpdated",
      "type": "event"
    },
    {
      "anonymous": false,
      "inputs": [
        {
          "indexed": false,
          "internalType": "address",
          "name": "newForwarder",
          "type": "address"
        }
      ],
      "name": "TrustedForwarderUpdated",
      "type": "event"
    },
    {
      "anonymous": false,
      "inputs": [
        {
          "indexed": true,
          "internalType": "address",
          "name": "implementation",
          "type": "address"
        }
      ],
      "name": "Upgraded",
      "type": "event"
    },
    {
      "inputs": [],
      "name": "DEFAULT_ADMIN_ROLE",
      "outputs": [
        {
          "internalType": "bytes32",
          "name": "",
          "type": "bytes32"
        }
      ],
      "stateMutability": "view",
      "type": "function"
    },
    {
      "inputs": [],
      "name": "UPGRADER_ROLE",
      "outputs": [
        {
          "internalType": "bytes32",
          "name": "",
          "type": "bytes32"
        }
      ],
      "stateMutability": "view",
      "type": "function"
    },
    {
      "inputs": [],
      "name": "UPGRADE_INTERFACE_VERSION",
      "outputs": [
        {
          "internalType": "string",
          "name": "",
          "type": "string"
        }
      ],
      "stateMutability": "view",
      "type": "function"
    },
    {
      "inputs": [
        {
          "internalType": "string",
          "name": "name",
          "type": "string"
        }
      ],
      "name": "createProject",
      "outputs": [
        {
          "internalType": "uint256",
          "name": "projectId",
          "type": "uint256"
        }
      ],
      "stateMutability": "nonpayable",
      "type": "function"
    },
    {
      "inputs": [
        {
          "internalType": "uint256",
          "name": "projectId",
          "type": "uint256"
        }
      ],
      "name": "deleteProject",
      "outputs": [],
      "stateMutability": "nonpayable",
      "type": "function"
    },
    {
      "inputs": [
        {
          "internalType": "uint256",
          "name": "projectId",
          "type": "uint256"
        },
        {
          "internalType": "bytes32",
          "name": "templateId",
          "type": "bytes32"
        },
        {
          "internalType": "bytes",
          "name": "initData",
          "type": "bytes"
        },
        {
          "internalType": "string",
          "name": "metadata",
          "type": "string"
        }
      ],
      "name": "deployTemplateToProject",
      "outputs": [
        {
          "internalType": "address",
          "name": "clone",
          "type": "address"
        }
      ],
      "stateMutability": "nonpayable",
      "type": "function"
    },
    {
      "inputs": [
        {
          "internalType": "bytes32",
          "name": "templateId",
          "type": "bytes32"
        },
        {
          "internalType": "bytes",
          "name": "initData",
          "type": "bytes"
        }
      ],
      "name": "deployWithFee",
      "outputs": [
        {
          "internalType": "address",
          "name": "clone",
          "type": "address"
        }
      ],
      "stateMutability": "nonpayable",
      "type": "function"
    },
    {
      "inputs": [],
      "name": "feeManager",
      "outputs": [
        {
          "internalType": "contract IFeeManager",
          "name": "",
          "type": "address"
        }
      ],
      "stateMutability": "view",
      "type": "function"
    },
    {
      "inputs": [
        {
          "internalType": "bytes32",
          "name": "role",
          "type": "bytes32"
        }
      ],
      "name": "getRoleAdmin",
      "outputs": [
        {
          "internalType": "bytes32",
          "name": "",
          "type": "bytes32"
        }
      ],
      "stateMutability": "view",
      "type": "function"
    },
    {
      "inputs": [],
      "name": "getTemplateFactoryAddress",
      "outputs": [
        {
          "internalType": "address",
          "name": "",
          "type": "address"
        }
      ],
      "stateMutability": "view",
      "type": "function"
    },
    {
      "inputs": [
        {
          "internalType": "address",
          "name": "module",
          "type": "address"
        }
      ],
      "name": "getTemplateIdForModule",
      "outputs": [
        {
          "internalType": "bytes32",
          "name": "",
          "type": "bytes32"
        }
      ],
      "stateMutability": "view",
      "type": "function"
    },
    {
      "inputs": [
        {
          "internalType": "address",
          "name": "user",
          "type": "address"
        }
      ],
      "name": "getUserProjects",
      "outputs": [
        {
          "components": [
            {
              "internalType": "uint256",
              "name": "projectId",
              "type": "uint256"
            },
            {
              "internalType": "string",
              "name": "name",
              "type": "string"
            },
            {
              "internalType": "address",
              "name": "owner",
              "type": "address"
            },
            {
              "internalType": "address[]",
              "name": "moduleAddresses",
              "type": "address[]"
            }
          ],
          "internalType": "struct DeploymentManager.Project[]",
          "name": "projects",
          "type": "tuple[]"
        }
      ],
      "stateMutability": "view",
      "type": "function"
    },
    {
      "inputs": [
        {
          "internalType": "bytes32",
          "name": "role",
          "type": "bytes32"
        },
        {
          "internalType": "address",
          "name": "account",
          "type": "address"
        }
      ],
      "name": "grantRole",
      "outputs": [],
      "stateMutability": "nonpayable",
      "type": "function"
    },
    {
      "inputs": [
        {
          "internalType": "bytes32",
          "name": "role",
          "type": "bytes32"
        },
        {
          "internalType": "address",
          "name": "account",
          "type": "address"
        }
      ],
      "name": "hasRole",
      "outputs": [
        {
          "internalType": "bool",
          "name": "",
          "type": "bool"
        }
      ],
      "stateMutability": "view",
      "type": "function"
    },
    {
      "inputs": [
        {
          "internalType": "address",
          "name": "_templateFactory",
          "type": "address"
        },
        {
          "internalType": "address",
          "name": "_tierSystem",
          "type": "address"
        },
        {
          "internalType": "address",
          "name": "_feeManager",
          "type": "address"
        },
        {
          "internalType": "address",
          "name": "trustedForwarder",
          "type": "address"
        }
      ],
      "name": "initialize",
      "outputs": [],
      "stateMutability": "nonpayable",
      "type": "function"
    },
    {
      "inputs": [
        {
          "internalType": "address",
          "name": "forwarder",
          "type": "address"
        }
      ],
      "name": "isTrustedForwarder",
      "outputs": [
        {
          "internalType": "bool",
          "name": "",
          "type": "bool"
        }
      ],
      "stateMutability": "view",
      "type": "function"
    },
    {
      "inputs": [],
      "name": "proxiableUUID",
      "outputs": [
        {
          "internalType": "bytes32",
          "name": "",
          "type": "bytes32"
        }
      ],
      "stateMutability": "view",
      "type": "function"
    },
    {
      "inputs": [
        {
          "internalType": "bytes32",
          "name": "role",
          "type": "bytes32"
        },
        {
          "internalType": "address",
          "name": "callerConfirmation",
          "type": "address"
        }
      ],
      "name": "renounceRole",
      "outputs": [],
      "stateMutability": "nonpayable",
      "type": "function"
    },
    {
      "inputs": [
        {
          "internalType": "bytes32",
          "name": "role",
          "type": "bytes32"
        },
        {
          "internalType": "address",
          "name": "account",
          "type": "address"
        }
      ],
      "name": "revokeRole",
      "outputs": [],
      "stateMutability": "nonpayable",
      "type": "function"
    },
    {
      "inputs": [
        {
          "internalType": "address",
          "name": "newRelayHub",
          "type": "address"
        }
      ],
      "name": "setRelayHub",
      "outputs": [],
      "stateMutability": "nonpayable",
      "type": "function"
    },
    {
      "inputs": [
        {
          "internalType": "bytes4",
          "name": "interfaceId",
          "type": "bytes4"
        }
      ],
      "name": "supportsInterface",
      "outputs": [
        {
          "internalType": "bool",
          "name": "",
          "type": "bool"
        }
      ],
      "stateMutability": "view",
      "type": "function"
    },
    {
      "inputs": [],
      "name": "templateFactory",
      "outputs": [
        {
          "internalType": "contract ITemplateFactory",
          "name": "",
          "type": "address"
        }
      ],
      "stateMutability": "view",
      "type": "function"
    },
    {
      "inputs": [],
      "name": "tierSystem",
      "outputs": [
        {
          "internalType": "contract ITierSystem",
          "name": "",
          "type": "address"
        }
      ],
      "stateMutability": "view",
      "type": "function"
    },
    {
      "inputs": [
        {
          "internalType": "address",
          "name": "newFeeManager",
          "type": "address"
        }
      ],
      "name": "updateFeeManager",
      "outputs": [],
      "stateMutability": "nonpayable",
      "type": "function"
    },
    {
      "inputs": [
        {
          "internalType": "address",
          "name": "newFactory",
          "type": "address"
        }
      ],
      "name": "updateTemplateFactory",
      "outputs": [],
      "stateMutability": "nonpayable",
      "type": "function"
    },
    {
      "inputs": [
        {
          "internalType": "address",
          "name": "newTierSystem",
          "type": "address"
        }
      ],
      "name": "updateTierSystem",
      "outputs": [],
      "stateMutability": "nonpayable",
      "type": "function"
    },
    {
      "inputs": [
        {
          "internalType": "address",
          "name": "newForwarder",
          "type": "address"
        }
      ],
      "name": "updateTrustedForwarder",
      "outputs": [],
      "stateMutability": "nonpayable",
      "type": "function"
    },
    {
      "inputs": [
        {
          "internalType": "address",
          "name": "newImplementation",
          "type": "address"
        },
        {
          "internalType": "bytes",
          "name": "data",
          "type": "bytes"
        }
      ],
      "name": "upgradeToAndCall",
      "outputs": [],
      "stateMutability": "payable",
      "type": "function"
    }
  ],
  "bytecode": "0x60a080604052346100cc57306080527ff0c57e16840df040f15088dc2f81fe391c3923bec73e23a9662efc9c229c6a009081549060ff8260401c166100bd57506001600160401b036002600160401b031982821601610078575b60405161261690816100d28239608051818181610a430152610afd0152f35b6001600160401b031990911681179091556040519081527fc7f505b2f371ae2175ee4913f4499e1f2633a7b5936321eed1cdaeb6115181d290602090a1388080610059565b63f92ee8a960e01b8152600490fd5b600080fdfe608080604052600436101561001357600080fd5b60003560e01c90816301ffc9a714611bca575080630e574c55146119dc57806312e7d2a01461195e57806315ee4df1146117515780631dc5314f146116dd578063248a9ca3146116a15780632aa2fdf1146111e15780632f2ff15d14611195578063346383bf1461073a57806336568abe146111445780634cd0cb2814610d295780634f1ef28614610aad57806352d1902d14610a30578063572b6c0514610a0357806362eb9c801461098f5780637bb052641461090e57806391d14854146108b4578063a217fddf14610898578063ad3cb1cc1461084e578063c6acd274146107da578063d0fb0203146107b1578063d547741f14610763578063d81e44e41461073a578063e32e723c14610464578063f72c0d8b14610429578063f8c8765e1461022b578063f8caa7e5146102025763f90b03111461015357600080fd5b346101fd5760203660031901126101fd5761016c611c4a565b610174612147565b6001600160a01b031680156101c4576020817fa4388ecc389b1390354ae0c65a856c0d7dd4fb648419f5d3ac0b99e38f46fd11926001600160601b0360a01b6000541617600055604051908152a1005b60405162461bcd60e51b815260206004820152601160248201527024b73b30b634b2103337b93bb0b93232b960791b6044820152606490fd5b600080fd5b346101fd5760003660031901126101fd576002546040516001600160a01b039091168152602090f35b346101fd5760803660031901126101fd57610244611c4a565b61024c611c60565b6044356001600160a01b0381811693918490036101fd57606435928184168094036101fd577ff0c57e16840df040f15088dc2f81fe391c3923bec73e23a9662efc9c229c6a0093845460ff8160401c1615946001600160401b03821697881580610422575b6001809a149081610418575b15908161040f575b506103fd5767ffffffffffffffff198316891788557fa4388ecc389b1390354ae0c65a856c0d7dd4fb648419f5d3ac0b99e38f46fd11956020958594896103de575b506103106124fc565b6103186124fc565b6103206124fc565b6103286124fc565b6103306124fc565b8a6000805160206125c183398151915255816001600160601b0360a01b9416848c5416178b5516826002541617600255816003541617600355600054161760005561038161037c612118565b6121f7565b5061039261038d612118565b6122a2565b50604051908152a16103a057005b805468ff0000000000000000191690556040519081527fc7f505b2f371ae2175ee4913f4499e1f2633a7b5936321eed1cdaeb6115181d290602090a1005b68ffffffffffffffffff191668010000000000000001178a558b610307565b60405163f92ee8a960e01b8152600490fd5b9050158a6102c5565b303b1591506102bd565b50866102b1565b346101fd5760003660031901126101fd5760206040517f189ab7a9244df0848122154315af71fe140f3db0fe014031783b0946b8c9d2e38152f35b346101fd576020806003193601126101fd576001600160a01b039081610488611c4a565b16600052600580825260406000209081546104a2816120bd565b926104b06040519485611cac565b8184526104bc826120bd565b601f190160005b81811061070357505060005b8281106105a8575050505060405192828493840190808552835180925260408501928160408460051b8801019501936000915b84831061050f5787870388f35b91939583959750603f9391931989820301845287519061054060808351835284840151908086850152830190611d1f565b90846040840151166040820152606080930151928183039101528280835192838152019201906000905b80821061058d575050509080600192980193019301909287969593949294610502565b9193806001929487875116815201940192018793929161056a565b6105b6818398969798611f48565b9054600391821b1c600052600688526040600020604051916105d783611c76565b815483526001918281018b604051809260009080546105f581611eb0565b80855294818a169182156106e45750506001146106a0575b5061061a92500382611cac565b8b8501528860028201541660408501520160405180928b83549283815201926000528b600020916000905b8d8c82841061068a57505050505050906106658160019594930382611cac565b606082015261067482896120d4565b5261067f81886120d4565b5001959493956104cf565b8554168652909401939282019290820190610645565b915050600052818d8060002092876000945b8286106106c95750505061061a928201018f61060d565b8091929450548386880101520192019183918f9188906106b2565b9150925061061a94915060ff19168284015215158c1b8201018f61060d565b958097959660405161071481611c76565b6000815260608084830152600060408301528082015282828a01015201969594966104c3565b346101fd5760003660031901126101fd576001546040516001600160a01b039091168152602090f35b346101fd5760403660031901126101fd576107af600435610782611c60565b90806000526000805160206125a18339815191526020526107aa6001604060002001546121b0565b6123f6565b005b346101fd5760003660031901126101fd576003546040516001600160a01b039091168152602090f35b346101fd5760203660031901126101fd576107f3611c4a565b6107fb612147565b6001600160a01b0390811690610812821515611f60565b816003549182167fe139a19f7890c89603e0d013fb99aed7d286ef55ef5a092ddd2980a3afd2138d600080a36001600160a01b03191617600355005b346101fd5760003660031901126101fd5761089460405161086e81611c91565b60058152640352e302e360dc1b6020820152604051918291602083526020830190611d1f565b0390f35b346101fd5760003660031901126101fd57602060405160008152f35b346101fd5760403660031901126101fd576108cd611c60565b6004356000526000805160206125a183398151915260205260406000209060018060a01b0316600052602052602060ff604060002054166040519015158152f35b346101fd5760203660031901126101fd57610927611c4a565b61092f612147565b6001600160a01b03168015610956576001600160601b0360a01b6009541617600955600080f35b60405162461bcd60e51b815260206004820152601160248201527024b73b30b634b2103932b630bc90343ab160791b6044820152606490fd5b346101fd5760203660031901126101fd576109a8611c4a565b6109b0612147565b6001600160a01b03908116906109c7821515611f60565b816001549182167f8cf6a04e7310d6a4c1d321a291f8fa36181a73ce2e90f1dcd19e59e528fd5dc9600080a36001600160a01b03191617600155005b346101fd5760203660031901126101fd576020610a26610a21611c4a565b612094565b6040519015158152f35b346101fd5760003660031901126101fd577f00000000000000000000000000000000000000000000000000000000000000006001600160a01b03163003610a9b5760206040517f360894a13ba1a3210667c828492db98dca3e2076cc3735a920a3ca505d382bbc8152f35b60405163703e46dd60e11b8152600490fd5b60403660031901126101fd57610ac1611c4a565b60249081356001600160401b0381116101fd57366023820112156101fd57610af29036908481600401359101611ce8565b6001600160a01b03917f00000000000000000000000000000000000000000000000000000000000000008316308114908115610cfb575b50610a9b57610b36612118565b831660008181527fab71e3f32666744d246edff3f96e4bdafee2e9867098cdd118a979a7464786a86020908152604090912054909491907f189ab7a9244df0848122154315af71fe140f3db0fe014031783b0946b8c9d2e39060ff1615610cde5750508116926040516352d1902d60e01b81528181600481885afa60009181610caf575b50610bd757604051634c9c8ce360e01b8152600481018690528690fd5b8490867f360894a13ba1a3210667c828492db98dca3e2076cc3735a920a3ca505d382bbc91828103610c9a5750843b15610c84575080546001600160a01b03191682179055604051907fbc7cd75a20ee27fd9adebab32041f755214dbc6bffa90cc0225b39da2e5c2d3b600080a2835115610c6a575060008381926107af95519101845af4610c64611e1f565b9161253d565b9250505034610c7557005b63b398979f60e01b8152600490fd5b604051634c9c8ce360e01b815260048101849052fd5b60405190632a87526960e21b82526004820152fd5b9091508281813d8311610cd7575b610cc78183611cac565b810103126101fd57519087610bba565b503d610cbd565b60449250866040519263e2517d3f60e01b84526004840152820152fd5b9050837f360894a13ba1a3210667c828492db98dca3e2076cc3735a920a3ca505d382bbc5416141585610b29565b346101fd576020806003193601126101fd5760609060043590610d4a6120e8565b610d52612118565b9180600052600682526040600020926040519260018060a01b03917f0eb3305a0be750dad027e54e4b1c9173b56defb89cd7535768dea21a12f3c2708382169786898098523285820152336040820152a1610e6360405191610db383611c91565b601c83527f5b44454255475d2064656c65746550726f6a6563742063616c6c656400000000848401526000806040518681019063104c13eb60e21b8252610e1881610e0a6024998b60248401526044830190611d1f565b03601f198101835282611cac565b51906a636f6e736f6c652e6c6f675afa50604051610e3581611c91565b601881527f5b44454255475d205f6d736753656e64657228293a20257300000000000000008582015261247a565b610f4a610f43600294600289015416610eb081604051610e8281611c91565b601981527f5b44454255475d2070726f6a6563742e6f776e65723a202573000000000000008882015261247a565b610ee687604051610ec081611c91565b60158152745b44454255475d2070726f6a65637449643a20257360581b888201526124b7565b610f3e60019a8b809b015492610f38610efe85611eb0565b604051610f0a81611c91565b601f81527f5b44454255475d2070726f6a6563742e6e616d65206c656e6774683a202573008b8201526124b7565b14611f9e565b611eb0565b1515611fde565b8460005260058252604060002090866000905b61106a575b5050509091809394506000526006815260406000209160008355610f8786840161204b565b6000600284015560038093018054600082558061104f575b505083600052600782526040600020918254926000815583610ff6575b8787877f82ffe74e518345670ef347c36f4dc8049fff9a1b71ac0657e931009ee4221183600080a36000805160206125c183398151915255005b8360030293600385040361103957600052600020918201915b82811061101c5780610fbc565b80600085925560008882015561103383820161204b565b0161100f565b634e487b7160e01b600052601160045260246000fd5b611063916000528360002090810190611eea565b8680610f9f565b82548082101561113e5786906110808386611f48565b929054600393841b1c14611098575050870187610f5d565b92919094959697985060001992838101908111611129576110cc6110bf6110e39287611f48565b905490881b1c9286611f48565b819391549060031b91821b91600019901b19161790565b9055825490811561111557508101926110fc8484611f48565b81939154921b1b19169055559084939291868080610f62565b634e487b7160e01b60009081526031600452fd5b82634e487b7160e01b60005260116004526000fd5b50610f62565b346101fd5760403660031901126101fd5761115d611c60565b6001600160a01b038061116e612118565b1690821603611183576107af906004356123f6565b60405163334bd91960e11b8152600490fd5b346101fd5760403660031901126101fd576107af6004356111b4611c60565b90806000526000805160206125a18339815191526020526111dc6001604060002001546121b0565b612370565b346101fd5760803660031901126101fd576044356001600160401b0381116101fd57611211903690600401611c1d565b906064356001600160401b0381116101fd57611231903690600401611c1d565b909261123b6120e8565b60043560009081526006602052604090206002810154909390611273906001600160a01b039081169061126c612118565b1614611f9e565b611283610f436001860154611eb0565b6112906024351515611d5f565b6002546001600160a01b031660206112a6612118565b604051635a2d572960e11b81526001600160a01b03909116600482015291829060249082905afa9081156116685761133291602091600091611674575b506003546001600160a01b03166112f8612118565b60405163625fd85160e01b81526001600160a01b03909116600482015260ff90921660248301529092839190829060009082906044820190565b03925af190811561166857600091611633575b509060009261135684931515611dba565b6113a260018060a01b0360015416916113946040519485926352876d8b60e11b60208501526024356024850152604060448501526064840191611dfe565b03601f198101845283611cac565b82602083519301915af16113bd6113b7611e1f565b91611e4f565b80516001600160a01b03916113da91810160209081019101611e91565b16918260005260086020526024356040600020556003810154600160401b81101561160757600361141392600183018282015501611f48565b81549060031b9084821b9160018060a01b03901b19161790556004356000526007602052604060002090604051938460608101106001600160401b0360608701111761160757611476916060860160405260243586528460208701523691611ce8565b6040840152805490600160401b821015611607576001820180825582101561161d5760409160029160005260036020600020910201845181556001810160018060a01b036020870151166001600160601b0360a01b82541617905501920151908151926001600160401b03841161160757836114fe6020956114f88454611eb0565b84611f01565b8493601f82116001146115a4576115309293948291600092611599575b50508160011b916000199060031b1c19161790565b90555b6040516024358382015282815261154981611c91565b7fcedd43909fe80016050e45e5dbd0dd3e7018b614fe8ccefb0e3610dbcdf5d7096040518061157c856004359583612023565b0390a260016000805160206125c183398151915255604051908152f35b01519050868061151b565b601f1982169483600052866000209160005b8781106115f05750836001959697106115d7575b505050811b019055611533565b015160001960f88460031b161c191690558580806115ca565b9192886001819286850151815501940192016115b6565b634e487b7160e01b600052604160045260246000fd5b634e487b7160e01b600052603260045260246000fd5b9190506020823d602011611660575b8161164f60209383611cac565b810103126101fd5790516000611345565b3d9150611642565b6040513d6000823e3d90fd5b6116949150823d841161169a575b61168c8183611cac565b810190611da1565b886112e3565b503d611682565b346101fd5760203660031901126101fd576004356000526000805160206125a18339815191526020526020600160406000200154604051908152f35b346101fd5760203660031901126101fd576116f6611c4a565b6116fe612147565b6001600160a01b0390811690611715821515611f60565b816002549182167f2971f5c9b80101ff2419623548fd61c507483f353d38c2fd4e431aa9bac6bc3d600080a36001600160a01b03191617600255005b346101fd576020806003193601126101fd576001600160401b036004358181116101fd57611783903690600401611c1d565b9081156119215760045460001991828214611039576001809201948560045585600052600687526040600020938685558385019186116116075785906117d3826117cd8554611eb0565b85611f01565b600090601f83116001146118be57509080611804926000916118b3575b508160011b916000199060031b1c19161790565b90555b6002611811612118565b930180546001600160a01b0319166001600160a01b0394851617905582611836612118565b16600052600586526040600020928354600160401b811015611607576118876110cc8289977f9d9ec461f162f3f4fdb9f6d189bfe13c59e48d8acd23a4c3bfcf7cc0fe4e84ed978995018155611f48565b9055611891612118565b16936118a860405192839289845289840191611dfe565b0390a3604051908152f35b90508401358a6117f0565b60008481528a812093508890601f198216905b8c8983831061190a57505050106118f2575b5050508285811b019055611807565b60f88860031b161c19908401351690558780806118e3565b868a0135885590960195948501948b9350016118d1565b60405162461bcd60e51b8152600481018590526015602482015274141c9bda9958dd081b985b59481c995c5d5a5c9959605a1b6044820152606490fd5b346101fd5760203660031901126101fd576001600160a01b0361197f611c4a565b166000526008602052604060002054801561199f57602090604051908152f35b60405162461bcd60e51b815260206004820152601560248201527415195b5c1b185d19481251081b9bdd08199bdd5b99605a1b6044820152606490fd5b346101fd5760403660031901126101fd576004356024356001600160401b0381116101fd57611a0f903690600401611c1d565b91611a186120e8565b611a23811515611d5f565b611a2b612118565b9160018060a01b0380600254169160405195635a2d572960e11b8752868387169485600483015281602460209a8b935afa801561166857611aaf978992600092611bab575b5060035460405163625fd85160e01b81526001600160a01b03909216600483015260ff9092166024820152978891861690829060009082906044820190565b03925af18015611668578796600091611b73575b5060007f5244239ee2f0e64cc64acf681cf90f096a5d6241ea6f090e68b27e280f1ac58294938782611b4e95611afb82961515611dba565b611b318c610e0a8a60015416966040519485938401976352876d8b60e11b89526024850152604060448501526064840191611dfe565b51925af1611b406113b7611e1f565b868082518301019101611e91565b16938493604051908152a360016000805160206125c183398151915255604051908152f35b87819594939892503d8311611ba4575b611b8d8183611cac565b810103126101fd5791518695919291906000611ac3565b503d611b83565b611bc3919250833d851161169a5761168c8183611cac565b908a611a70565b346101fd5760203660031901126101fd576004359063ffffffff60e01b82168092036101fd57602091637965db0b60e01b8114908115611c0c575b5015158152f35b6301ffc9a760e01b14905083611c05565b9181601f840112156101fd578235916001600160401b0383116101fd57602083818601950101116101fd57565b600435906001600160a01b03821682036101fd57565b602435906001600160a01b03821682036101fd57565b608081019081106001600160401b0382111761160757604052565b604081019081106001600160401b0382111761160757604052565b90601f801991011681019081106001600160401b0382111761160757604052565b6001600160401b03811161160757601f01601f191660200190565b929192611cf482611ccd565b91611d026040519384611cac565b8294818452818301116101fd578281602093846000960137010152565b919082519283825260005b848110611d4b575050826000602080949584010152601f8019910116010190565b602081830181015184830182015201611d2a565b15611d6657565b60405162461bcd60e51b8152602060048201526013602482015272125b9d985b1a59081d195b5c1b185d19481251606a1b6044820152606490fd5b908160209103126101fd575160ff811681036101fd5790565b15611dc157565b60405162461bcd60e51b81526020600482015260156024820152741199594818dbdb1b1958dd1a5bdb8819985a5b1959605a1b6044820152606490fd5b908060209392818452848401376000828201840152601f01601f1916010190565b3d15611e4a573d90611e3082611ccd565b91611e3e6040519384611cac565b82523d6000602084013e565b606090565b15611e5657565b60405162461bcd60e51b8152602060048201526013602482015272119858dd1bdc9e4818d85b1b0819985a5b1959606a1b6044820152606490fd5b908160209103126101fd57516001600160a01b03811681036101fd5790565b90600182811c92168015611ee0575b6020831014611eca57565b634e487b7160e01b600052602260045260246000fd5b91607f1691611ebf565b818110611ef5575050565b60008155600101611eea565b9190601f8111611f1057505050565b611f3c926000526020600020906020601f840160051c83019310611f3e575b601f0160051c0190611eea565b565b9091508190611f2f565b805482101561161d5760005260206000200190600090565b15611f6757565b60405162461bcd60e51b815260206004820152600f60248201526e496e76616c6964206164647265737360881b6044820152606490fd5b15611fa557565b60405162461bcd60e51b81526020600482015260116024820152702737ba10383937b532b1ba1037bbb732b960791b6044820152606490fd5b15611fe557565b60405162461bcd60e51b8152602060048201526016602482015275141c9bda9958dd08191bd95cc81b9bdd08195e1a5cdd60521b6044820152606490fd5b9061203b602091949394604084526040840190611d1f565b6001600160a01b03909416910152565b6120558154611eb0565b908161205f575050565b81601f60009311600114612071575055565b908083918252612090601f60208420940160051c840160018501611eea565b5555565b6000546001600160a01b0391821690821681149182156120b357505090565b6009541614919050565b6001600160401b0381116116075760051b60200190565b805182101561161d5760209160051b010190565b6000805160206125c183398151915260028154146121065760029055565b604051633ee5aeb560e01b8152600490fd5b601436101580612138575b156121345736601319013560601c90565b3390565b5061214233612094565b612123565b61214f612118565b6001600160a01b031660008181527fb7db2dd08fcb62d0c9e08c51941cae53c267786a0b75803fb7960902fc8ef97d602052604081205460ff1615612192575050565b604492506040519163e2517d3f60e01b835260048301526024820152fd5b6121b8612118565b90806000526000805160206125a183398151915260205260406000209160018060a01b0316918260005260205260ff6040600020541615612192575050565b6001600160a01b0390811660008181527fb7db2dd08fcb62d0c9e08c51941cae53c267786a0b75803fb7960902fc8ef97d60205260408120549092906000805160206125a18339815191529060ff1661229c578380526020526040832082845260205260408320600160ff19825416179055612271612118565b16917f2f8788117e7eff1d82e926ec794901d17c78024a50270940304540a733656f0d8180a4600190565b50505090565b6001600160a01b0390811660008181527fab71e3f32666744d246edff3f96e4bdafee2e9867098cdd118a979a7464786a8602052604081205490927f189ab7a9244df0848122154315af71fe140f3db0fe014031783b0946b8c9d2e3916000805160206125a1833981519152919060ff16612369577f2f8788117e7eff1d82e926ec794901d17c78024a50270940304540a733656f0d918386526020526040852084865260205260408520600160ff19825416179055612360612118565b169380a4600190565b5050505090565b60008181526000805160206125a1833981519152602081815260408084206001600160a01b039687168086529252832054929490939260ff16612369577f2f8788117e7eff1d82e926ec794901d17c78024a50270940304540a733656f0d918386526020526040852084865260205260408520600160ff19825416179055612360612118565b60008181526000805160206125a1833981519152602081815260408084206001600160a01b039687168086529252832054929490939260ff1615612369577ff6391f5c32d9c69d2a47ea670b442974b53935d1edc7fd64eb21e047a839171b91838652602052604085208486526020526040852060ff198154169055612360612118565b60009190610e0a6124a48493604051928391602083019563319af33360e01b875260248401612023565b51906a636f6e736f6c652e6c6f675afa50565b6000919082916124a460405180926124e86020830195632d839cb360e21b8752604060248501526064840190611d1f565b90604483015203601f198101835282611cac565b60ff7ff0c57e16840df040f15088dc2f81fe391c3923bec73e23a9662efc9c229c6a005460401c161561252b57565b604051631afcd79f60e31b8152600490fd5b90612564575080511561255257805190602001fd5b60405163d6bda27560e01b8152600490fd5b81511580612597575b612575575090565b604051639996b31560e01b81526001600160a01b039091166004820152602490fd5b50803b1561256d56fe02dd7bc7dec4dceedda775e58dd541e08a116c6c53815c0bd028192f7b6268009b779b17422d0df92223018b32b4d1fa46e071723d6817e2486d003becc55f00a26469706673582212207c2feaa82e42e28ca53e3ef846c20e496424d814d2c41728a2fadab174b11b4764736f6c63430008160033",
  "linkReferences": {},
  "deployedLinkReferences": {}
}