{
  "_format": "hh-sol-artifact-1",
  "contractName": "MODLRelayHub",
  "sourceName": "contracts/MODLRelayHub.sol",
  "abi": [
    {
      "inputs": [],
      "stateMutability": "nonpayable",
      "type": "constructor"
    },
    {
      "inputs": [
        {
          "internalType": "address",
          "name": "target",
          "type": "address"
        }
      ],
      "name": "AddressEmptyCode",
      "type": "error"
    },
    {
      "inputs": [
        {
          "internalType": "address",
          "name": "implementation",
          "type": "address"
        }
      ],
      "name": "ERC1967InvalidImplementation",
      "type": "error"
    },
    {
      "inputs": [],
      "name": "ERC1967NonPayable",
      "type": "error"
    },
    {
      "inputs": [],
      "name": "FailedCall",
      "type": "error"
    },
    {
      "inputs": [],
      "name": "InvalidInitialization",
      "type": "error"
    },
    {
      "inputs": [],
      "name": "NotInitializing",
      "type": "error"
    },
    {
      "inputs": [
        {
          "internalType": "address",
          "name": "owner",
          "type": "address"
        }
      ],
      "name": "OwnableInvalidOwner",
      "type": "error"
    },
    {
      "inputs": [
        {
          "internalType": "address",
          "name": "account",
          "type": "address"
        }
      ],
      "name": "OwnableUnauthorizedAccount",
      "type": "error"
    },
    {
      "inputs": [],
      "name": "ReentrancyGuardReentrantCall",
      "type": "error"
    },
    {
      "inputs": [],
      "name": "UUPSUnauthorizedCallContext",
      "type": "error"
    },
    {
      "inputs": [
        {
          "internalType": "bytes32",
          "name": "slot",
          "type": "bytes32"
        }
      ],
      "name": "UUPSUnsupportedProxiableUUID",
      "type": "error"
    },
    {
      "anonymous": false,
      "inputs": [
        {
          "indexed": false,
          "internalType": "uint64",
          "name": "version",
          "type": "uint64"
        }
      ],
      "name": "Initialized",
      "type": "event"
    },
    {
      "anonymous": false,
      "inputs": [
        {
          "indexed": true,
          "internalType": "address",
          "name": "previousOwner",
          "type": "address"
        },
        {
          "indexed": true,
          "internalType": "address",
          "name": "newOwner",
          "type": "address"
        }
      ],
      "name": "OwnershipTransferred",
      "type": "event"
    },
    {
      "anonymous": false,
      "inputs": [
        {
          "indexed": true,
          "internalType": "address",
          "name": "paymaster",
          "type": "address"
        },
        {
          "indexed": false,
          "internalType": "uint256",
          "name": "amount",
          "type": "uint256"
        }
      ],
      "name": "PaymasterDeposited",
      "type": "event"
    },
    {
      "anonymous": false,
      "inputs": [
        {
          "indexed": true,
          "internalType": "address",
          "name": "paymaster",
          "type": "address"
        },
        {
          "indexed": false,
          "internalType": "uint256",
          "name": "amount",
          "type": "uint256"
        }
      ],
      "name": "PaymasterWithdrawal",
      "type": "event"
    },
    {
      "anonymous": false,
      "inputs": [
        {
          "indexed": true,
          "internalType": "address",
          "name": "user",
          "type": "address"
        },
        {
          "indexed": true,
          "internalType": "address",
          "name": "paymaster",
          "type": "address"
        },
        {
          "indexed": true,
          "internalType": "address",
          "name": "target",
          "type": "address"
        },
        {
          "indexed": false,
          "internalType": "uint256",
          "name": "totalGasUsed",
          "type": "uint256"
        }
      ],
      "name": "Relayed",
      "type": "event"
    },
    {
      "anonymous": false,
      "inputs": [
        {
          "indexed": true,
          "internalType": "address",
          "name": "newRelayer",
          "type": "address"
        }
      ],
      "name": "TrustedRelayerUpdated",
      "type": "event"
    },
    {
      "anonymous": false,
      "inputs": [
        {
          "indexed": true,
          "internalType": "address",
          "name": "implementation",
          "type": "address"
        }
      ],
      "name": "Upgraded",
      "type": "event"
    },
    {
      "inputs": [],
      "name": "UPGRADE_INTERFACE_VERSION",
      "outputs": [
        {
          "internalType": "string",
          "name": "",
          "type": "string"
        }
      ],
      "stateMutability": "view",
      "type": "function"
    },
    {
      "inputs": [
        {
          "internalType": "address",
          "name": "paymaster",
          "type": "address"
        }
      ],
      "name": "depositForPaymaster",
      "outputs": [],
      "stateMutability": "payable",
      "type": "function"
    },
    {
      "inputs": [
        {
          "internalType": "address",
          "name": "",
          "type": "address"
        }
      ],
      "name": "deposits",
      "outputs": [
        {
          "internalType": "uint256",
          "name": "",
          "type": "uint256"
        }
      ],
      "stateMutability": "view",
      "type": "function"
    },
    {
      "inputs": [
        {
          "internalType": "address",
          "name": "_trustedRelayer",
          "type": "address"
        }
      ],
      "name": "initialize",
      "outputs": [],
      "stateMutability": "nonpayable",
      "type": "function"
    },
    {
      "inputs": [],
      "name": "owner",
      "outputs": [
        {
          "internalType": "address",
          "name": "",
          "type": "address"
        }
      ],
      "stateMutability": "view",
      "type": "function"
    },
    {
      "inputs": [],
      "name": "proxiableUUID",
      "outputs": [
        {
          "internalType": "bytes32",
          "name": "",
          "type": "bytes32"
        }
      ],
      "stateMutability": "view",
      "type": "function"
    },
    {
      "inputs": [
        {
          "internalType": "address",
          "name": "paymaster",
          "type": "address"
        },
        {
          "internalType": "address",
          "name": "target",
          "type": "address"
        },
        {
          "internalType": "bytes",
          "name": "data",
          "type": "bytes"
        },
        {
          "internalType": "uint256",
          "name": "gasLimit",
          "type": "uint256"
        },
        {
          "internalType": "address",
          "name": "user",
          "type": "address"
        }
      ],
      "name": "relayCall",
      "outputs": [],
      "stateMutability": "nonpayable",
      "type": "function"
    },
    {
      "inputs": [],
      "name": "renounceOwnership",
      "outputs": [],
      "stateMutability": "nonpayable",
      "type": "function"
    },
    {
      "inputs": [
        {
          "internalType": "address",
          "name": "_trustedRelayer",
          "type": "address"
        }
      ],
      "name": "setTrustedRelayer",
      "outputs": [],
      "stateMutability": "nonpayable",
      "type": "function"
    },
    {
      "inputs": [
        {
          "internalType": "address",
          "name": "newOwner",
          "type": "address"
        }
      ],
      "name": "transferOwnership",
      "outputs": [],
      "stateMutability": "nonpayable",
      "type": "function"
    },
    {
      "inputs": [],
      "name": "trustedRelayer",
      "outputs": [
        {
          "internalType": "address",
          "name": "",
          "type": "address"
        }
      ],
      "stateMutability": "view",
      "type": "function"
    },
    {
      "inputs": [
        {
          "internalType": "address",
          "name": "newImplementation",
          "type": "address"
        },
        {
          "internalType": "bytes",
          "name": "data",
          "type": "bytes"
        }
      ],
      "name": "upgradeToAndCall",
      "outputs": [],
      "stateMutability": "payable",
      "type": "function"
    },
    {
      "inputs": [
        {
          "internalType": "address payable",
          "name": "paymaster",
          "type": "address"
        },
        {
          "internalType": "uint256",
          "name": "amount",
          "type": "uint256"
        }
      ],
      "name": "withdrawDeposit",
      "outputs": [],
      "stateMutability": "nonpayable",
      "type": "function"
    },
    {
      "stateMutability": "payable",
      "type": "receive"
    }
  ],
  "bytecode": "0x60a080604052346100cc57306080527ff0c57e16840df040f15088dc2f81fe391c3923bec73e23a9662efc9c229c6a009081549060ff8260401c166100bd57506001600160401b036002600160401b031982821601610078575b6040516111c090816100d28239608051818181610c390152610d1f0152f35b6001600160401b031990911681179091556040519081527fc7f505b2f371ae2175ee4913f4499e1f2633a7b5936321eed1cdaeb6115181d290602090a1388080610059565b63f92ee8a960e01b8152600490fd5b600080fdfe6080604052600436101561001b575b361561001957600080fd5b005b6000803560e01c80634f1ef28614610ca357806352d1902d14610c265780636510fe0b14610b83578063715018a614610b195780637f07bfdc146109b45780638596c2261461098b5780638da5cb5b146109555780639054b6cf146108a6578063ad3cb1cc1461085c578063bd0cdaf6146102fc578063c4d66de81461011d578063f2fde38b146100f05763fc7e286d146100b6575061000e565b346100ed5760203660031901126100ed576020906040906001600160a01b036100dd610ed3565b1681528083522054604051908152f35b80fd5b50346100ed5760203660031901126100ed5761011a61010d610ed3565b61011561106d565b610ff9565b80f35b50346100ed5760203660031901126100ed57610137610ed3565b7ff0c57e16840df040f15088dc2f81fe391c3923bec73e23a9662efc9c229c6a0080549160ff8360401c16159067ffffffffffffffff8416938415806102f5575b600180961490816102eb575b1590816102e2575b506102d05767ffffffffffffffff19811685178455826102b1575b506001600160a01b031690811561027a576101c06110a6565b6101c86110a6565b6101d133610ff9565b6101d96110a6565b6101e16110a6565b6101e96110a6565b60008051602061116b83398151915284905583546001600160a01b03191682178455604051917ff84ecdd905017e535159272e1fb54366cb19530c316b4c309d385f51ea3304a98680a261023b578380f35b7fc7f505b2f371ae2175ee4913f4499e1f2633a7b5936321eed1cdaeb6115181d29260209268ff00000000000000001981541690558152a13880808380f35b60405162461bcd60e51b815260206004820152600f60248201526e24b73b30b634b2103932b630bcb2b960891b6044820152606490fd5b68ffffffffffffffffff191668010000000000000001178355386101a7565b60405163f92ee8a960e01b8152600490fd5b9050153861018c565b303b159150610184565b5082610178565b50346100ed5760a03660031901126100ed57610316610ed3565b6001600160a01b0360243580821690036108585767ffffffffffffffff60443511610858573660236044350112156108585767ffffffffffffffff6044356004013511610858573660246044356004013560443501011161085857806084351660843503610858578060015416330361081c57600260008051602061116b833981519152541461080a57600260008051602061116b833981519152555a8183168452836020526040842054156107c55760405163564b1f9760e11b81526084358316600482015260643560248201528481604481838888165af19081156106f0578591610739575b50848060405160208101906bffffffffffffffffffffffff1960843560601b1682526014815261042d81610eee565b610473602060405180938282019560443560040135602460443501883761046760443560040135840191858301938a855251938491610f5e565b01038084520182610f20565b519082602435606435f1610485610fc9565b50156106ff57846104985a606435610fa6565b918486163b156106fb576040516307dc025160e11b815260843586166004820152606060248201529283918291906104d4906064840190610f81565b9060448301520381838789165af180156106f0576106be575b506104f9905a90610fa6565b6161a881018091116106aa5780156106965780600019043a11610651573a81028181043a0361063d57828416855284602052806040862054106105f857848080809386881682528160205260408220610553828254610fa6565b9055335af1610560610fc9565b50156105b3576040519081527f5dbe58ce26d7d095b3b906260d89f0a4373e41614a8841a533ccbe6569b4286c60208380602435169516936084351692a4600160008051602061116b8339815191525580f35b60405162461bcd60e51b815260206004820152601f60248201527f5265696d62757273656d656e7420746f2072656c61796572206661696c6564006044820152606490fd5b60405162461bcd60e51b815260206004820152601e60248201527f496e73756666696369656e74207061796d6173746572206465706f73697400006044820152606490fd5b634e487b7160e01b85526011600452602485fd5b60405162461bcd60e51b815260206004820152601960248201527f4f766572666c6f7720696e2067617320636f73742063616c63000000000000006044820152606490fd5b634e487b7160e01b84526012600452602484fd5b634e487b7160e01b84526011600452602484fd5b67ffffffffffffffff81959295116106dc57604052926104f96104ed565b634e487b7160e01b82526041600452602482fd5b6040513d87823e3d90fd5b5080fd5b60405162461bcd60e51b815260206004820152601260248201527115185c99d95d0818d85b1b0819985a5b195960721b6044820152606490fd5b90503d8086833e61074a8183610f20565b8101906020818303126107c15780519067ffffffffffffffff82116107bd5782601f8383010112156107bd57818101519061078482610f42565b936107926040519586610f20565b8285526020838584010101116107b95760206107b393818601920101610f5e565b386103fe565b8780fd5b8680fd5b8580fd5b60405162461bcd60e51b815260206004820152601a60248201527f5061796d617374657220686173207a65726f206465706f7369740000000000006044820152606490fd5b604051633ee5aeb560e01b8152600490fd5b60405162461bcd60e51b815260206004820152601460248201527327b7363c903a393ab9ba32b2103932b630bcb2b960611b6044820152606490fd5b8280fd5b50346100ed57806003193601126100ed576108a260405161087c81610eee565b60058152640352e302e360dc1b6020820152604051918291602083526020830190610f81565b0390f35b50346100ed5760203660031901126100ed576108c0610ed3565b6108c861106d565b6001600160a01b0316801561091057600180546001600160a01b031916821790557ff84ecdd905017e535159272e1fb54366cb19530c316b4c309d385f51ea3304a98280a280f35b60405162461bcd60e51b815260206004820152601760248201527f496e76616c69642072656c6179657220616464726573730000000000000000006044820152606490fd5b50346100ed57806003193601126100ed5760008051602061114b833981519152546040516001600160a01b039091168152602090f35b50346100ed57806003193601126100ed576001546040516001600160a01b039091168152602090f35b50346100ed5760403660031901126100ed576004356001600160a01b038116908190036106fb57602435813303610ad4578183528260205280604084205410610a98578183528260205260408320610a0d828254610fa6565b90558280808084865af1610a1f610fc9565b5015610a535760207fdc320249be6042385e00f08969a7a6f67f21fb2c393186199f265da66452750e91604051908152a280f35b60405162461bcd60e51b815260206004820152601a60248201527f5769746864726177616c207472616e73666572206661696c65640000000000006044820152606490fd5b60405162461bcd60e51b8152602060048201526014602482015273125b9cdd59999a58da595b9d0819195c1bdcda5d60621b6044820152606490fd5b60405162461bcd60e51b815260206004820152601760248201527f556e617574686f72697a6564207769746864726177616c0000000000000000006044820152606490fd5b50346100ed57806003193601126100ed57610b3261106d565b60008051602061114b83398151915280546001600160a01b0319811690915581906001600160a01b03167f8be0079c531659141344cd1fd0a4f28419497f9722a3daafe3b4186f6b6457e08280a380f35b5060203660031901126100ed576001600160a01b03610ba0610ed3565b168015610bed5780825281602052604082208054903482018092116106aa57557fbc7ca18aabaed00211fcdeab040a07bab11e595ae73f83568cf0dda3d4010ea06020604051348152a280f35b60405162461bcd60e51b815260206004820152601160248201527024b73b30b634b2103830bcb6b0b9ba32b960791b6044820152606490fd5b50346100ed57806003193601126100ed577f00000000000000000000000000000000000000000000000000000000000000006001600160a01b03163003610c915760206040517f360894a13ba1a3210667c828492db98dca3e2076cc3735a920a3ca505d382bbc8152f35b60405163703e46dd60e11b8152600490fd5b5060403660031901126100ed57610cb8610ed3565b602491823567ffffffffffffffff81116106fb57366023820112156106fb57806004013592610ce684610f42565b610cf36040519182610f20565b84815260209485820193368883830101116107c157818692898993018737830101526001600160a01b037f00000000000000000000000000000000000000000000000000000000000000008116308114908115610ea5575b50610c9157610d5861106d565b6040516352d1902d60e01b81529083169580826004818a5afa9182918793610e75575b5050610d9957604051634c9c8ce360e01b8152600481018790528790fd5b8590877f360894a13ba1a3210667c828492db98dca3e2076cc3735a920a3ca505d382bbc91828103610e605750843b15610e4a575080546001600160a01b031916821790556040518592917fbc7cd75a20ee27fd9adebab32041f755214dbc6bffa90cc0225b39da2e5c2d3b8480a2815115610e2d5750610e299382915190845af4610e23610fc9565b916110e7565b5080f35b935050505034610e3b575080f35b63b398979f60e01b8152600490fd5b604051634c9c8ce360e01b815260048101849052fd5b60405190632a87526960e21b82526004820152fd5b9080929350813d8311610e9e575b610e8d8183610f20565b810103126107c15751903880610d7b565b503d610e83565b9050817f360894a13ba1a3210667c828492db98dca3e2076cc3735a920a3ca505d382bbc5416141538610d4b565b600435906001600160a01b0382168203610ee957565b600080fd5b6040810190811067ffffffffffffffff821117610f0a57604052565b634e487b7160e01b600052604160045260246000fd5b90601f8019910116810190811067ffffffffffffffff821117610f0a57604052565b67ffffffffffffffff8111610f0a57601f01601f191660200190565b60005b838110610f715750506000910152565b8181015183820152602001610f61565b90602091610f9a81518092818552858086019101610f5e565b601f01601f1916010190565b91908203918211610fb357565b634e487b7160e01b600052601160045260246000fd5b3d15610ff4573d90610fda82610f42565b91610fe86040519384610f20565b82523d6000602084013e565b606090565b6001600160a01b039081169081156110545760008051602061114b83398151915280546001600160a01b031981168417909155167f8be0079c531659141344cd1fd0a4f28419497f9722a3daafe3b4186f6b6457e0600080a3565b604051631e4fbdf760e01b815260006004820152602490fd5b60008051602061114b833981519152546001600160a01b0316330361108e57565b60405163118cdaa760e01b8152336004820152602490fd5b60ff7ff0c57e16840df040f15088dc2f81fe391c3923bec73e23a9662efc9c229c6a005460401c16156110d557565b604051631afcd79f60e31b8152600490fd5b9061110e57508051156110fc57805190602001fd5b60405163d6bda27560e01b8152600490fd5b81511580611141575b61111f575090565b604051639996b31560e01b81526001600160a01b039091166004820152602490fd5b50803b1561111756fe9016d09d72d40fdae2fd8ceac6b6234c7706214fd39c1cd1e609a0528c1993009b779b17422d0df92223018b32b4d1fa46e071723d6817e2486d003becc55f00a264697066735822122035e1f147422d61e6a3bd7b6cac446d1d3ca7db991d55960f4ed7b563b2e2a86664736f6c63430008160033",
  "linkReferences": {},
  "deployedLinkReferences": {}
}