{
  "_format": "hh-sol-artifact-1",
  "contractName": "MODLRelayHub",
  "sourceName": "contracts/MODLRelayHub.sol",
  "abi": [
    {
      "inputs": [],
      "stateMutability": "nonpayable",
      "type": "constructor"
    },
    {
      "inputs": [
        {
          "internalType": "address",
          "name": "target",
          "type": "address"
        }
      ],
      "name": "AddressEmptyCode",
      "type": "error"
    },
    {
      "inputs": [
        {
          "internalType": "address",
          "name": "implementation",
          "type": "address"
        }
      ],
      "name": "ERC1967InvalidImplementation",
      "type": "error"
    },
    {
      "inputs": [],
      "name": "ERC1967NonPayable",
      "type": "error"
    },
    {
      "inputs": [],
      "name": "FailedCall",
      "type": "error"
    },
    {
      "inputs": [],
      "name": "InvalidInitialization",
      "type": "error"
    },
    {
      "inputs": [],
      "name": "NotInitializing",
      "type": "error"
    },
    {
      "inputs": [
        {
          "internalType": "address",
          "name": "owner",
          "type": "address"
        }
      ],
      "name": "OwnableInvalidOwner",
      "type": "error"
    },
    {
      "inputs": [
        {
          "internalType": "address",
          "name": "account",
          "type": "address"
        }
      ],
      "name": "OwnableUnauthorizedAccount",
      "type": "error"
    },
    {
      "inputs": [],
      "name": "UUPSUnauthorizedCallContext",
      "type": "error"
    },
    {
      "inputs": [
        {
          "internalType": "bytes32",
          "name": "slot",
          "type": "bytes32"
        }
      ],
      "name": "UUPSUnsupportedProxiableUUID",
      "type": "error"
    },
    {
      "anonymous": false,
      "inputs": [
        {
          "indexed": false,
          "internalType": "uint64",
          "name": "version",
          "type": "uint64"
        }
      ],
      "name": "Initialized",
      "type": "event"
    },
    {
      "anonymous": false,
      "inputs": [
        {
          "indexed": true,
          "internalType": "address",
          "name": "previousOwner",
          "type": "address"
        },
        {
          "indexed": true,
          "internalType": "address",
          "name": "newOwner",
          "type": "address"
        }
      ],
      "name": "OwnershipTransferred",
      "type": "event"
    },
    {
      "anonymous": false,
      "inputs": [
        {
          "indexed": true,
          "internalType": "address",
          "name": "paymaster",
          "type": "address"
        },
        {
          "indexed": false,
          "internalType": "uint256",
          "name": "amount",
          "type": "uint256"
        }
      ],
      "name": "PaymasterDeposited",
      "type": "event"
    },
    {
      "anonymous": false,
      "inputs": [
        {
          "indexed": true,
          "internalType": "address",
          "name": "paymaster",
          "type": "address"
        },
        {
          "indexed": false,
          "internalType": "uint256",
          "name": "amount",
          "type": "uint256"
        }
      ],
      "name": "PaymasterWithdrawal",
      "type": "event"
    },
    {
      "anonymous": false,
      "inputs": [
        {
          "indexed": true,
          "internalType": "address",
          "name": "user",
          "type": "address"
        },
        {
          "indexed": true,
          "internalType": "address",
          "name": "paymaster",
          "type": "address"
        },
        {
          "indexed": true,
          "internalType": "address",
          "name": "target",
          "type": "address"
        },
        {
          "indexed": false,
          "internalType": "uint256",
          "name": "totalGasUsed",
          "type": "uint256"
        }
      ],
      "name": "Relayed",
      "type": "event"
    },
    {
      "anonymous": false,
      "inputs": [
        {
          "indexed": true,
          "internalType": "address",
          "name": "newRelayer",
          "type": "address"
        }
      ],
      "name": "TrustedRelayerUpdated",
      "type": "event"
    },
    {
      "anonymous": false,
      "inputs": [
        {
          "indexed": true,
          "internalType": "address",
          "name": "implementation",
          "type": "address"
        }
      ],
      "name": "Upgraded",
      "type": "event"
    },
    {
      "inputs": [],
      "name": "UPGRADE_INTERFACE_VERSION",
      "outputs": [
        {
          "internalType": "string",
          "name": "",
          "type": "string"
        }
      ],
      "stateMutability": "view",
      "type": "function"
    },
    {
      "inputs": [
        {
          "internalType": "address",
          "name": "paymaster",
          "type": "address"
        }
      ],
      "name": "depositForPaymaster",
      "outputs": [],
      "stateMutability": "payable",
      "type": "function"
    },
    {
      "inputs": [
        {
          "internalType": "address",
          "name": "",
          "type": "address"
        }
      ],
      "name": "deposits",
      "outputs": [
        {
          "internalType": "uint256",
          "name": "",
          "type": "uint256"
        }
      ],
      "stateMutability": "view",
      "type": "function"
    },
    {
      "inputs": [
        {
          "internalType": "address",
          "name": "_trustedRelayer",
          "type": "address"
        }
      ],
      "name": "initialize",
      "outputs": [],
      "stateMutability": "nonpayable",
      "type": "function"
    },
    {
      "inputs": [],
      "name": "owner",
      "outputs": [
        {
          "internalType": "address",
          "name": "",
          "type": "address"
        }
      ],
      "stateMutability": "view",
      "type": "function"
    },
    {
      "inputs": [],
      "name": "proxiableUUID",
      "outputs": [
        {
          "internalType": "bytes32",
          "name": "",
          "type": "bytes32"
        }
      ],
      "stateMutability": "view",
      "type": "function"
    },
    {
      "inputs": [
        {
          "internalType": "address",
          "name": "paymaster",
          "type": "address"
        },
        {
          "internalType": "address",
          "name": "target",
          "type": "address"
        },
        {
          "internalType": "bytes",
          "name": "data",
          "type": "bytes"
        },
        {
          "internalType": "uint256",
          "name": "gasLimit",
          "type": "uint256"
        }
      ],
      "name": "relayCall",
      "outputs": [],
      "stateMutability": "nonpayable",
      "type": "function"
    },
    {
      "inputs": [],
      "name": "renounceOwnership",
      "outputs": [],
      "stateMutability": "nonpayable",
      "type": "function"
    },
    {
      "inputs": [
        {
          "internalType": "address",
          "name": "_trustedRelayer",
          "type": "address"
        }
      ],
      "name": "setTrustedRelayer",
      "outputs": [],
      "stateMutability": "nonpayable",
      "type": "function"
    },
    {
      "inputs": [
        {
          "internalType": "address",
          "name": "newOwner",
          "type": "address"
        }
      ],
      "name": "transferOwnership",
      "outputs": [],
      "stateMutability": "nonpayable",
      "type": "function"
    },
    {
      "inputs": [],
      "name": "trustedRelayer",
      "outputs": [
        {
          "internalType": "address",
          "name": "",
          "type": "address"
        }
      ],
      "stateMutability": "view",
      "type": "function"
    },
    {
      "inputs": [
        {
          "internalType": "address",
          "name": "newImplementation",
          "type": "address"
        },
        {
          "internalType": "bytes",
          "name": "data",
          "type": "bytes"
        }
      ],
      "name": "upgradeToAndCall",
      "outputs": [],
      "stateMutability": "payable",
      "type": "function"
    },
    {
      "inputs": [
        {
          "internalType": "address payable",
          "name": "paymaster",
          "type": "address"
        },
        {
          "internalType": "uint256",
          "name": "amount",
          "type": "uint256"
        }
      ],
      "name": "withdrawDeposit",
      "outputs": [],
      "stateMutability": "nonpayable",
      "type": "function"
    },
    {
      "stateMutability": "payable",
      "type": "receive"
    }
  ],
  "bytecode": "0x60a080604052346100cc57306080527ff0c57e16840df040f15088dc2f81fe391c3923bec73e23a9662efc9c229c6a009081549060ff8260401c166100bd57506001600160401b036002600160401b031982821601610078575b60405161105790816100d28239608051818181610b070152610be70152f35b6001600160401b031990911681179091556040519081527fc7f505b2f371ae2175ee4913f4499e1f2633a7b5936321eed1cdaeb6115181d290602090a1388080610059565b63f92ee8a960e01b8152600490fd5b600080fdfe60406080815260049081361015610020575b5050361561001e57600080fd5b005b600091823560e01c9081634f1ef28614610b6b57816352d1902d14610af25781636510fe0b14610a3c578163715018a6146109d25781637f07bfdc146108735781638596c2261461084a5781638da5cb5b146108145781639054b6cf14610763578163ad3cb1cc146106f4578163c4d66de814610534578163d2f7561a1461012157508063f2fde38b146100f15763fc7e286d0361001157346100ed5760203660031901126100ed5760209181906001600160a01b036100de610da6565b16815280845220549051908152f35b5080fd5b823461011e57602036600319011261011e5761011b61010e610da6565b610116610f24565b610eb0565b80f35b80fd5b839150346100ed5760803660031901126100ed5761013d610da6565b6001600160a01b0393602480358681169491929185820361053057604480359567ffffffffffffffff9687811161052c573660238201121561052c5780840135978089116105285736888a84010111610528576064958635928d6001541633036104f1578c9d9c999a9b9c5a95169b8c8b528960209b808d522054156104b057918e918593838f8f908c8f8d928591519c8d95869463564b1f9760e11b865233908601528401525af19687156104a657908c8f93928699610415575b50918186959493928693519485930183378101828152039286f161021b610e80565b50156103e05761022d8d915a90610e5d565b928b3b156100ed5788516307dc025160e11b815233818901526060818d01529384918d9183918591839161026490838f0190610e38565b908b83015203925af180156103d6576103af575b5050610285905a90610e5d565b956161a8870180971161039e573a87028781043a148815171561038c57888b528a875280868c20541061034d578a808080938c8252818b528982206102cb828254610e5d565b9055335af16102d8610e80565b501561030f5750505050907f5dbe58ce26d7d095b3b906260d89f0a4373e41614a8841a533ccbe6569b4286c91519283523392a480f35b845162461bcd60e51b8152928301869052601f908301527f5265696d62757273656d656e7420746f2072656c61796572206661696c65640090820152fd5b50845162461bcd60e51b8152928301869052601e908301527f496e73756666696369656e74207061796d6173746572206465706f736974000090820152fd5b50634e487b7160e01b8a526011835289fd5b634e487b7160e01b8a526011835289fd5b819b929b116103c4578552986102858b610278565b634e487b7160e01b8252604184528782fd5b87513d8e823e3d90fd5b875162461bcd60e51b81528087018a90526012818c01527115185c99d95d0818d85b1b0819985a5b195960721b818701528790fd5b929493505096503d8085833e61042b8183610dc1565b8101908d818303126104a25780519087821161049e57019080601f830112156104a2578c938e9183519261046a61046185610df9565b97519788610dc1565b838752838501011161049e578f92988f8f9a96610491899895899684869585019101610e15565b9a929495965092506101f9565b8580fd5b8480fd5b8c513d86823e3d90fd5b50885162461bcd60e51b81528088018b9052601a818d01527f5061796d617374657220686173207a65726f206465706f736974000000000000818801528890fd5b885162461bcd60e51b81526020818901526014818c01527327b7363c903a393ab9ba32b2103932b630bcb2b960611b818801528890fd5b8a80fd5b8980fd5b8680fd5b919050346106f05760203660031901126106f057610550610da6565b7ff0c57e16840df040f15088dc2f81fe391c3923bec73e23a9662efc9c229c6a009182549160ff83831c16159267ffffffffffffffff8116801590816106e8575b60011490816106de575b1590816106d5575b506106c55767ffffffffffffffff1981166001178555836106a6575b506001600160a01b031693841561067257506105d9610f5d565b6105e1610f5d565b6105ea33610eb0565b6105f2610f5d565b600180546001600160a01b0319168517905551927ff84ecdd905017e535159272e1fb54366cb19530c316b4c309d385f51ea3304a98580a2610632578280f35b805468ff000000000000000019169055600181527fc7f505b2f371ae2175ee4913f4499e1f2633a7b5936321eed1cdaeb6115181d290602090a138808280f35b6020606492519162461bcd60e51b8352820152600f60248201526e24b73b30b634b2103932b630bcb2b960891b6044820152fd5b68ffffffffffffffffff191668010000000000000001178455386105bf565b825163f92ee8a960e01b81528690fd5b905015386105a3565b303b15915061059b565b859150610591565b8280fd5b8383346100ed57816003193601126100ed578051918183019083821067ffffffffffffffff831117610750575061074c9350815260058252640352e302e360dc1b602083015251918291602083526020830190610e38565b0390f35b634e487b7160e01b815260418552602490fd5b9050346106f05760203660031901126106f05761077e610da6565b610786610f24565b6001600160a01b03169182156107d1575050600180546001600160a01b031916821790557ff84ecdd905017e535159272e1fb54366cb19530c316b4c309d385f51ea3304a98280a280f35b906020606492519162461bcd60e51b8352820152601760248201527f496e76616c69642072656c6179657220616464726573730000000000000000006044820152fd5b5050346100ed57816003193601126100ed576000805160206110028339815191525490516001600160a01b039091168152602090f35b5050346100ed57816003193601126100ed5760015490516001600160a01b039091168152602090f35b9050346106f057816003193601126106f05780356001600160a01b03811692908390036109ce576024359183330361098c578385528460205282828620541061095357838552846020528185206108cb848254610e5d565b90558480808086885af16108dd610e80565b501561091157507fdc320249be6042385e00f08969a7a6f67f21fb2c393186199f265da66452750e9160209151908152a280f35b6020606492519162461bcd60e51b8352820152601a60248201527f5769746864726177616c207472616e73666572206661696c65640000000000006044820152fd5b6020606492519162461bcd60e51b83528201526014602482015273125b9cdd59999a58da595b9d0819195c1bdcda5d60621b6044820152fd5b6020606492519162461bcd60e51b8352820152601760248201527f556e617574686f72697a6564207769746864726177616c0000000000000000006044820152fd5b8380fd5b833461011e578060031936011261011e576109eb610f24565b60008051602061100283398151915280546001600160a01b0319811690915581906001600160a01b03167f8be0079c531659141344cd1fd0a4f28419497f9722a3daafe3b4186f6b6457e08280a380f35b91905060203660031901126106f0576001600160a01b03610a5b610da6565b16918215610abc5782845283602052818420805491348301809311610aa9575055513481527fbc7ca18aabaed00211fcdeab040a07bab11e595ae73f83568cf0dda3d4010ea090602090a280f35b634e487b7160e01b865260119052602485fd5b6020606492519162461bcd60e51b8352820152601160248201527024b73b30b634b2103830bcb6b0b9ba32b960791b6044820152fd5b82843461011e578060031936011261011e57507f00000000000000000000000000000000000000000000000000000000000000006001600160a01b03163003610b5e57602090517f360894a13ba1a3210667c828492db98dca3e2076cc3735a920a3ca505d382bbc8152f35b5163703e46dd60e11b8152fd5b918091506003193601126106f057610b81610da6565b90602493843567ffffffffffffffff81116100ed57366023820112156100ed578085013593610baf85610df9565b610bbb85519182610dc1565b85815260209586820193368a838301011161049e578186928b8a93018737830101526001600160a01b037f00000000000000000000000000000000000000000000000000000000000000008116308114908115610d78575b50610d6857610c20610f24565b85516352d1902d60e01b81529083169680828a818b5afa9182918793610d38575b5050610c5d5750505050505191634c9c8ce360e01b8352820152fd5b86899689927f360894a13ba1a3210667c828492db98dca3e2076cc3735a920a3ca505d382bbc90818103610d235750853b15610d0e5780546001600160a01b0319168317905551869392917fbc7cd75a20ee27fd9adebab32041f755214dbc6bffa90cc0225b39da2e5c2d3b8580a2825115610cf2575050610cee9382915190845af4610ce8610e80565b91610f9e565b5080f35b93509350505034610d0257505080f35b63b398979f60e01b8152fd5b5051634c9c8ce360e01b815291820152859150fd5b848a91845191632a87526960e21b8352820152fd5b9080929350813d8311610d61575b610d508183610dc1565b8101031261049e5751903880610c41565b503d610d46565b855163703e46dd60e11b81528890fd5b9050817f360894a13ba1a3210667c828492db98dca3e2076cc3735a920a3ca505d382bbc5416141538610c13565b600435906001600160a01b0382168203610dbc57565b600080fd5b90601f8019910116810190811067ffffffffffffffff821117610de357604052565b634e487b7160e01b600052604160045260246000fd5b67ffffffffffffffff8111610de357601f01601f191660200190565b60005b838110610e285750506000910152565b8181015183820152602001610e18565b90602091610e5181518092818552858086019101610e15565b601f01601f1916010190565b91908203918211610e6a57565b634e487b7160e01b600052601160045260246000fd5b3d15610eab573d90610e9182610df9565b91610e9f6040519384610dc1565b82523d6000602084013e565b606090565b6001600160a01b03908116908115610f0b5760008051602061100283398151915280546001600160a01b031981168417909155167f8be0079c531659141344cd1fd0a4f28419497f9722a3daafe3b4186f6b6457e0600080a3565b604051631e4fbdf760e01b815260006004820152602490fd5b600080516020611002833981519152546001600160a01b03163303610f4557565b60405163118cdaa760e01b8152336004820152602490fd5b60ff7ff0c57e16840df040f15088dc2f81fe391c3923bec73e23a9662efc9c229c6a005460401c1615610f8c57565b604051631afcd79f60e31b8152600490fd5b90610fc55750805115610fb357805190602001fd5b60405163d6bda27560e01b8152600490fd5b81511580610ff8575b610fd6575090565b604051639996b31560e01b81526001600160a01b039091166004820152602490fd5b50803b15610fce56fe9016d09d72d40fdae2fd8ceac6b6234c7706214fd39c1cd1e609a0528c199300a2646970667358221220b502acc83d1418ca8db08bfb59a3758483804db6284a14a0b3af0bb5343c45d564736f6c63430008160033",
  "linkReferences": {},
  "deployedLinkReferences": {}
}