{
  "_format": "hh-sol-artifact-1",
  "contractName": "MODLRelayHub",
  "sourceName": "contracts/MODLRelayHub.sol",
  "abi": [
    {
      "anonymous": false,
      "inputs": [
        {
          "indexed": true,
          "internalType": "address",
          "name": "user",
          "type": "address"
        },
        {
          "indexed": true,
          "internalType": "address",
          "name": "paymaster",
          "type": "address"
        },
        {
          "indexed": true,
          "internalType": "address",
          "name": "target",
          "type": "address"
        },
        {
          "indexed": false,
          "internalType": "uint256",
          "name": "totalGasUsed",
          "type": "uint256"
        }
      ],
      "name": "Relayed",
      "type": "event"
    },
    {
      "inputs": [
        {
          "internalType": "address",
          "name": "paymaster",
          "type": "address"
        },
        {
          "internalType": "address",
          "name": "target",
          "type": "address"
        },
        {
          "internalType": "bytes",
          "name": "data",
          "type": "bytes"
        },
        {
          "internalType": "uint256",
          "name": "gasLimit",
          "type": "uint256"
        }
      ],
      "name": "relayCall",
      "outputs": [],
      "stateMutability": "nonpayable",
      "type": "function"
    },
    {
      "stateMutability": "payable",
      "type": "receive"
    }
  ],
  "bytecode": "0x6080806040523461001657610428908161001c8239f35b600080fdfe6080604081815260049081361015610022575b505050361561002057600080fd5b005b600092833560e01c63d2f7561a1461003a5750610012565b34610340576080366003190112610340576001600160a01b0392803584811693919084900361032e5760249283359586169586810361033c57604435918867ffffffffffffffff9283851161026d573660238601121561026d578486013594848611610239573689878301011161023957869584848160448d988f8490606435809c5a9f63564b1f9760e11b865233908601528401525af196871561033257908b93929186986102ad575b5050849392918185928c519485930183378101828152039286f13d156102a8573d61010f81610390565b9061011c8851928361036e565b81528a60203d92013e5b156102715761013789915a906103cf565b873b1561026d5760848651809481936307dc025160e11b8352338984015260608b84015261017482518093816064870152602087870191016103ac565b6044830152601f01601f19168101030181838a5af180156102635761024e575b506101a0905a906103cf565b926161a8840180941161023d57908691853b15610239578490845192633f8d6eaf60e01b845233908401528201523a6044820152818160648183895af1801561022f57610217575b5050519081527f5dbe58ce26d7d095b3b906260d89f0a4373e41614a8841a533ccbe6569b4286c60203392a480f35b61022090610344565b61022b5784386101e8565b8480fd5b83513d84823e3d90fd5b8280fd5b634e487b7160e01b87526011825286fd5b9661025c6101a09298610344565b9690610194565b84513d8a823e3d90fd5b5080fd5b845162461bcd60e51b81526020818601526012818801527115185c99d95d0818d85b1b0819985a5b195960721b6044820152606490fd5b610126565b9197509392503d8086863e6102c2818661036e565b84019360208186031261032e57805191821161032e57019083601f8301121561022b578151906102f182610390565b946102fe8c51968761036e565b8286526020838501011161032e57846103228796938e956020808a970191016103ac565b979181939495506100e5565b8580fd5b8a513d87823e3d90fd5b8780fd5b8380fd5b67ffffffffffffffff811161035857604052565b634e487b7160e01b600052604160045260246000fd5b90601f8019910116810190811067ffffffffffffffff82111761035857604052565b67ffffffffffffffff811161035857601f01601f191660200190565b60005b8381106103bf5750506000910152565b81810151838201526020016103af565b919082039182116103dc57565b634e487b7160e01b600052601160045260246000fdfea26469706673582212204c03953c903bf950cb0ec09f1e32df6e6814f118008ad71554f4926a14ef098e64736f6c63430008160033",
  "linkReferences": {},
  "deployedLinkReferences": {}
}