{
  "_format": "hh-sol-artifact-1",
  "contractName": "MODLRelayHub",
  "sourceName": "contracts/MODLRelayHub.sol",
  "abi": [
    {
      "inputs": [],
      "stateMutability": "nonpayable",
      "type": "constructor"
    },
    {
      "inputs": [
        {
          "internalType": "address",
          "name": "target",
          "type": "address"
        }
      ],
      "name": "AddressEmptyCode",
      "type": "error"
    },
    {
      "inputs": [
        {
          "internalType": "address",
          "name": "implementation",
          "type": "address"
        }
      ],
      "name": "ERC1967InvalidImplementation",
      "type": "error"
    },
    {
      "inputs": [],
      "name": "ERC1967NonPayable",
      "type": "error"
    },
    {
      "inputs": [],
      "name": "FailedCall",
      "type": "error"
    },
    {
      "inputs": [],
      "name": "InvalidInitialization",
      "type": "error"
    },
    {
      "inputs": [],
      "name": "NotInitializing",
      "type": "error"
    },
    {
      "inputs": [
        {
          "internalType": "address",
          "name": "owner",
          "type": "address"
        }
      ],
      "name": "OwnableInvalidOwner",
      "type": "error"
    },
    {
      "inputs": [
        {
          "internalType": "address",
          "name": "account",
          "type": "address"
        }
      ],
      "name": "OwnableUnauthorizedAccount",
      "type": "error"
    },
    {
      "inputs": [],
      "name": "ReentrancyGuardReentrantCall",
      "type": "error"
    },
    {
      "inputs": [],
      "name": "UUPSUnauthorizedCallContext",
      "type": "error"
    },
    {
      "inputs": [
        {
          "internalType": "bytes32",
          "name": "slot",
          "type": "bytes32"
        }
      ],
      "name": "UUPSUnsupportedProxiableUUID",
      "type": "error"
    },
    {
      "anonymous": false,
      "inputs": [
        {
          "indexed": false,
          "internalType": "uint256",
          "name": "startGas",
          "type": "uint256"
        },
        {
          "indexed": false,
          "internalType": "uint256",
          "name": "midGas",
          "type": "uint256"
        },
        {
          "indexed": false,
          "internalType": "uint256",
          "name": "endGas",
          "type": "uint256"
        },
        {
          "indexed": false,
          "internalType": "uint256",
          "name": "totalGasUsed",
          "type": "uint256"
        },
        {
          "indexed": false,
          "internalType": "uint256",
          "name": "gasPrice",
          "type": "uint256"
        },
        {
          "indexed": false,
          "internalType": "uint256",
          "name": "totalCost",
          "type": "uint256"
        }
      ],
      "name": "DebugGasStats",
      "type": "event"
    },
    {
      "anonymous": false,
      "inputs": [
        {
          "indexed": false,
          "internalType": "uint64",
          "name": "version",
          "type": "uint64"
        }
      ],
      "name": "Initialized",
      "type": "event"
    },
    {
      "anonymous": false,
      "inputs": [
        {
          "indexed": true,
          "internalType": "address",
          "name": "previousOwner",
          "type": "address"
        },
        {
          "indexed": true,
          "internalType": "address",
          "name": "newOwner",
          "type": "address"
        }
      ],
      "name": "OwnershipTransferred",
      "type": "event"
    },
    {
      "anonymous": false,
      "inputs": [
        {
          "indexed": true,
          "internalType": "address",
          "name": "paymaster",
          "type": "address"
        },
        {
          "indexed": false,
          "internalType": "uint256",
          "name": "amount",
          "type": "uint256"
        }
      ],
      "name": "PaymasterDeposited",
      "type": "event"
    },
    {
      "anonymous": false,
      "inputs": [
        {
          "indexed": true,
          "internalType": "address",
          "name": "paymaster",
          "type": "address"
        },
        {
          "indexed": false,
          "internalType": "uint256",
          "name": "amount",
          "type": "uint256"
        }
      ],
      "name": "PaymasterWithdrawal",
      "type": "event"
    },
    {
      "anonymous": false,
      "inputs": [
        {
          "indexed": true,
          "internalType": "address",
          "name": "user",
          "type": "address"
        },
        {
          "indexed": true,
          "internalType": "address",
          "name": "paymaster",
          "type": "address"
        },
        {
          "indexed": true,
          "internalType": "address",
          "name": "target",
          "type": "address"
        },
        {
          "indexed": false,
          "internalType": "uint256",
          "name": "totalGasUsed",
          "type": "uint256"
        }
      ],
      "name": "Relayed",
      "type": "event"
    },
    {
      "anonymous": false,
      "inputs": [
        {
          "indexed": true,
          "internalType": "address",
          "name": "newRelayer",
          "type": "address"
        }
      ],
      "name": "TrustedRelayerUpdated",
      "type": "event"
    },
    {
      "anonymous": false,
      "inputs": [
        {
          "indexed": true,
          "internalType": "address",
          "name": "implementation",
          "type": "address"
        }
      ],
      "name": "Upgraded",
      "type": "event"
    },
    {
      "inputs": [],
      "name": "UPGRADE_INTERFACE_VERSION",
      "outputs": [
        {
          "internalType": "string",
          "name": "",
          "type": "string"
        }
      ],
      "stateMutability": "view",
      "type": "function"
    },
    {
      "inputs": [
        {
          "internalType": "address",
          "name": "paymaster",
          "type": "address"
        }
      ],
      "name": "depositForPaymaster",
      "outputs": [],
      "stateMutability": "payable",
      "type": "function"
    },
    {
      "inputs": [
        {
          "internalType": "address",
          "name": "",
          "type": "address"
        }
      ],
      "name": "deposits",
      "outputs": [
        {
          "internalType": "uint256",
          "name": "",
          "type": "uint256"
        }
      ],
      "stateMutability": "view",
      "type": "function"
    },
    {
      "inputs": [
        {
          "internalType": "address",
          "name": "_trustedRelayer",
          "type": "address"
        }
      ],
      "name": "initialize",
      "outputs": [],
      "stateMutability": "nonpayable",
      "type": "function"
    },
    {
      "inputs": [],
      "name": "owner",
      "outputs": [
        {
          "internalType": "address",
          "name": "",
          "type": "address"
        }
      ],
      "stateMutability": "view",
      "type": "function"
    },
    {
      "inputs": [],
      "name": "proxiableUUID",
      "outputs": [
        {
          "internalType": "bytes32",
          "name": "",
          "type": "bytes32"
        }
      ],
      "stateMutability": "view",
      "type": "function"
    },
    {
      "inputs": [
        {
          "internalType": "address",
          "name": "paymaster",
          "type": "address"
        },
        {
          "internalType": "address",
          "name": "target",
          "type": "address"
        },
        {
          "internalType": "bytes",
          "name": "data",
          "type": "bytes"
        },
        {
          "internalType": "uint256",
          "name": "gasLimit",
          "type": "uint256"
        },
        {
          "internalType": "address",
          "name": "user",
          "type": "address"
        }
      ],
      "name": "relayCall",
      "outputs": [],
      "stateMutability": "nonpayable",
      "type": "function"
    },
    {
      "inputs": [],
      "name": "renounceOwnership",
      "outputs": [],
      "stateMutability": "nonpayable",
      "type": "function"
    },
    {
      "inputs": [
        {
          "internalType": "address",
          "name": "_trustedRelayer",
          "type": "address"
        }
      ],
      "name": "setTrustedRelayer",
      "outputs": [],
      "stateMutability": "nonpayable",
      "type": "function"
    },
    {
      "inputs": [
        {
          "internalType": "address",
          "name": "newOwner",
          "type": "address"
        }
      ],
      "name": "transferOwnership",
      "outputs": [],
      "stateMutability": "nonpayable",
      "type": "function"
    },
    {
      "inputs": [],
      "name": "trustedRelayer",
      "outputs": [
        {
          "internalType": "address",
          "name": "",
          "type": "address"
        }
      ],
      "stateMutability": "view",
      "type": "function"
    },
    {
      "inputs": [
        {
          "internalType": "address",
          "name": "newImplementation",
          "type": "address"
        },
        {
          "internalType": "bytes",
          "name": "data",
          "type": "bytes"
        }
      ],
      "name": "upgradeToAndCall",
      "outputs": [],
      "stateMutability": "payable",
      "type": "function"
    },
    {
      "inputs": [
        {
          "internalType": "address payable",
          "name": "paymaster",
          "type": "address"
        },
        {
          "internalType": "uint256",
          "name": "amount",
          "type": "uint256"
        }
      ],
      "name": "withdrawDeposit",
      "outputs": [],
      "stateMutability": "nonpayable",
      "type": "function"
    },
    {
      "stateMutability": "payable",
      "type": "receive"
    }
  ],
  "bytecode": "0x60a080604052346100cc57306080527ff0c57e16840df040f15088dc2f81fe391c3923bec73e23a9662efc9c229c6a009081549060ff8260401c166100bd57506001600160401b036002600160401b031982821601610078575b60405161137990816100d28239608051818181610df20152610ed80152f35b6001600160401b031990911681179091556040519081527fc7f505b2f371ae2175ee4913f4499e1f2633a7b5936321eed1cdaeb6115181d290602090a1388080610059565b63f92ee8a960e01b8152600490fd5b600080fdfe6080604052600436101561001b575b361561001957600080fd5b005b6000803560e01c80634f1ef28614610e5c57806352d1902d14610ddf5780636510fe0b14610d28578063715018a614610cbe5780637f07bfdc14610b595780638596c22614610b305780638da5cb5b14610afa5780639054b6cf14610a4b578063ad3cb1cc14610a01578063bd0cdaf6146102fc578063c4d66de81461011d578063f2fde38b146100f05763fc7e286d146100b6575061000e565b346100ed5760203660031901126100ed576020906040906001600160a01b036100dd61108c565b1681528083522054604051908152f35b80fd5b50346100ed5760203660031901126100ed5761011a61010d61108c565b610115611226565b6111b2565b80f35b50346100ed5760203660031901126100ed5761013761108c565b7ff0c57e16840df040f15088dc2f81fe391c3923bec73e23a9662efc9c229c6a0080549160ff8360401c16159067ffffffffffffffff8416938415806102f5575b600180961490816102eb575b1590816102e2575b506102d05767ffffffffffffffff19811685178455826102b1575b506001600160a01b031690811561027a576101c061125f565b6101c861125f565b6101d1336111b2565b6101d961125f565b6101e161125f565b6101e961125f565b60008051602061132483398151915284905583546001600160a01b03191682178455604051917ff84ecdd905017e535159272e1fb54366cb19530c316b4c309d385f51ea3304a98680a261023b578380f35b7fc7f505b2f371ae2175ee4913f4499e1f2633a7b5936321eed1cdaeb6115181d29260209268ff00000000000000001981541690558152a13880808380f35b60405162461bcd60e51b815260206004820152600f60248201526e24b73b30b634b2103932b630bcb2b960891b6044820152606490fd5b68ffffffffffffffffff191668010000000000000001178355386101a7565b60405163f92ee8a960e01b8152600490fd5b9050153861018c565b303b159150610184565b5082610178565b50346100ed5760a03660031901126100ed5761031661108c565b6001600160a01b0360243580821690036109fd5767ffffffffffffffff604435116109fd573660236044350112156109fd5767ffffffffffffffff60443560040135116109fd57366024604435600401356044350101116109fd578060843516608435036109fd57806001541633036109c157600260008051602061132483398151915254146109af576002600080516020611324833981519152555a81831684528360205260408420541561096a5760405163564b1f9760e11b81526084358316600482015260643560248201528481604481838888165af190811561095f5785916108d3575b50604051856104716020808401936bffffffffffffffffffffffff1960843560601b16855260148152610430816110a7565b60405193849161046584840197604435600401356024604435018a376044356004013585019286840194855251938491611117565b010380845201826110d9565b5a6113871981019081116108bf57606435101561087a5786918291519082602435606435f161049e611182565b5015610840575a90856104b38360643561115f565b918587163b1561083c576040516307dc025160e11b815260843587166004820152606060248201529283918291906104ef90606484019061113a565b906044830152038183888a165af1908161080c575b506105475760405162461bcd60e51b8152602060048201526016602482015275141bdcdd14995b185e595910d85b1b0819985a5b195960521b6044820152606490fd5b5a908183106107ce577f408a20bf92ee894cc49494940c0abc58428ae05cc4d89008d645da7fd3ba254060c06040518581528360208201528460408201526161a88587030160608201523a60808201528860a0820152a13a1580156107a3575b15610767576161a8828403013a80820282900414901517156107535760c07f408a20bf92ee894cc49494940c0abc58428ae05cc4d89008d645da7fd3ba2540916040519085825260208201528360408201526161a88486030160608201523a60808201523a6161a8858703010260a0820152a18284168552846020523a6161a8828403010260408620541061070e57828416855284602052604085206106563a6161a88486030102825461115f565b9055848080803a6161a88688030102335af1610670611182565b50156106c9576161a89060405192030181527f5dbe58ce26d7d095b3b906260d89f0a4373e41614a8841a533ccbe6569b4286c60208380602435169516936084351692a460016000805160206113248339815191525580f35b60405162461bcd60e51b815260206004820152601f60248201527f5265696d62757273656d656e7420746f2072656c61796572206661696c6564006044820152606490fd5b60405162461bcd60e51b815260206004820152601e60248201527f496e73756666696369656e74207061796d6173746572206465706f73697400006044820152606490fd5b634e487b7160e01b86526011600452602486fd5b60405162461bcd60e51b815260206004820152601460248201527313dd995c999b1bddc81a5b8819d85cc818dbdcdd60621b6044820152606490fd5b6107ba573a600019048284036161a80111156105a7565b634e487b7160e01b86526012600452602486fd5b60405162461bcd60e51b8152602060048201526016602482015275496e76616c696420676173206163636f756e74696e6760501b6044820152606490fd5b67ffffffffffffffff8197929711610828576040529438610504565b634e487b7160e01b82526041600452602482fd5b5080fd5b60405162461bcd60e51b815260206004820152601260248201527115185c99d95d0818d85b1b0819985a5b195960721b6044820152606490fd5b60405162461bcd60e51b815260206004820152601760248201527f496e73756666696369656e7420676173206275666665720000000000000000006044820152606490fd5b634e487b7160e01b88526011600452602488fd5b90503d8086833e6108e481836110d9565b81019060208183031261095b5780519067ffffffffffffffff82116109575782601f83830101121561095757818101519061091e826110fb565b9361092c60405195866110d9565b82855260208385840101011161095357602061094d93818601920101611117565b386103fe565b8780fd5b8680fd5b8580fd5b6040513d87823e3d90fd5b60405162461bcd60e51b815260206004820152601a60248201527f5061796d617374657220686173207a65726f206465706f7369740000000000006044820152606490fd5b604051633ee5aeb560e01b8152600490fd5b60405162461bcd60e51b815260206004820152601460248201527327b7363c903a393ab9ba32b2103932b630bcb2b960611b6044820152606490fd5b8280fd5b50346100ed57806003193601126100ed57610a47604051610a21816110a7565b60058152640352e302e360dc1b602082015260405191829160208352602083019061113a565b0390f35b50346100ed5760203660031901126100ed57610a6561108c565b610a6d611226565b6001600160a01b03168015610ab557600180546001600160a01b031916821790557ff84ecdd905017e535159272e1fb54366cb19530c316b4c309d385f51ea3304a98280a280f35b60405162461bcd60e51b815260206004820152601760248201527f496e76616c69642072656c6179657220616464726573730000000000000000006044820152606490fd5b50346100ed57806003193601126100ed57600080516020611304833981519152546040516001600160a01b039091168152602090f35b50346100ed57806003193601126100ed576001546040516001600160a01b039091168152602090f35b50346100ed5760403660031901126100ed576004356001600160a01b0381169081900361083c57602435813303610c79578183528260205280604084205410610c3d578183528260205260408320610bb282825461115f565b90558280808084865af1610bc4611182565b5015610bf85760207fdc320249be6042385e00f08969a7a6f67f21fb2c393186199f265da66452750e91604051908152a280f35b60405162461bcd60e51b815260206004820152601a60248201527f5769746864726177616c207472616e73666572206661696c65640000000000006044820152606490fd5b60405162461bcd60e51b8152602060048201526014602482015273125b9cdd59999a58da595b9d0819195c1bdcda5d60621b6044820152606490fd5b60405162461bcd60e51b815260206004820152601760248201527f556e617574686f72697a6564207769746864726177616c0000000000000000006044820152606490fd5b50346100ed57806003193601126100ed57610cd7611226565b60008051602061130483398151915280546001600160a01b0319811690915581906001600160a01b03167f8be0079c531659141344cd1fd0a4f28419497f9722a3daafe3b4186f6b6457e08280a380f35b5060203660031901126100ed576001600160a01b03610d4561108c565b168015610da6578082528160205260408220805490348201809211610d9257557fbc7ca18aabaed00211fcdeab040a07bab11e595ae73f83568cf0dda3d4010ea06020604051348152a280f35b634e487b7160e01b84526011600452602484fd5b60405162461bcd60e51b815260206004820152601160248201527024b73b30b634b2103830bcb6b0b9ba32b960791b6044820152606490fd5b50346100ed57806003193601126100ed577f00000000000000000000000000000000000000000000000000000000000000006001600160a01b03163003610e4a5760206040517f360894a13ba1a3210667c828492db98dca3e2076cc3735a920a3ca505d382bbc8152f35b60405163703e46dd60e11b8152600490fd5b5060403660031901126100ed57610e7161108c565b602491823567ffffffffffffffff811161083c573660238201121561083c57806004013592610e9f846110fb565b610eac60405191826110d9565b848152602094858201933688838301011161095b57818692898993018737830101526001600160a01b037f0000000000000000000000000000000000000000000000000000000000000000811630811490811561105e575b50610e4a57610f11611226565b6040516352d1902d60e01b81529083169580826004818a5afa918291879361102e575b5050610f5257604051634c9c8ce360e01b8152600481018790528790fd5b8590877f360894a13ba1a3210667c828492db98dca3e2076cc3735a920a3ca505d382bbc918281036110195750843b15611003575080546001600160a01b031916821790556040518592917fbc7cd75a20ee27fd9adebab32041f755214dbc6bffa90cc0225b39da2e5c2d3b8480a2815115610fe65750610fe29382915190845af4610fdc611182565b916112a0565b5080f35b935050505034610ff4575080f35b63b398979f60e01b8152600490fd5b604051634c9c8ce360e01b815260048101849052fd5b60405190632a87526960e21b82526004820152fd5b9080929350813d8311611057575b61104681836110d9565b8101031261095b5751903880610f34565b503d61103c565b9050817f360894a13ba1a3210667c828492db98dca3e2076cc3735a920a3ca505d382bbc5416141538610f04565b600435906001600160a01b03821682036110a257565b600080fd5b6040810190811067ffffffffffffffff8211176110c357604052565b634e487b7160e01b600052604160045260246000fd5b90601f8019910116810190811067ffffffffffffffff8211176110c357604052565b67ffffffffffffffff81116110c357601f01601f191660200190565b60005b83811061112a5750506000910152565b818101518382015260200161111a565b9060209161115381518092818552858086019101611117565b601f01601f1916010190565b9190820391821161116c57565b634e487b7160e01b600052601160045260246000fd5b3d156111ad573d90611193826110fb565b916111a160405193846110d9565b82523d6000602084013e565b606090565b6001600160a01b0390811690811561120d5760008051602061130483398151915280546001600160a01b031981168417909155167f8be0079c531659141344cd1fd0a4f28419497f9722a3daafe3b4186f6b6457e0600080a3565b604051631e4fbdf760e01b815260006004820152602490fd5b600080516020611304833981519152546001600160a01b0316330361124757565b60405163118cdaa760e01b8152336004820152602490fd5b60ff7ff0c57e16840df040f15088dc2f81fe391c3923bec73e23a9662efc9c229c6a005460401c161561128e57565b604051631afcd79f60e31b8152600490fd5b906112c757508051156112b557805190602001fd5b60405163d6bda27560e01b8152600490fd5b815115806112fa575b6112d8575090565b604051639996b31560e01b81526001600160a01b039091166004820152602490fd5b50803b156112d056fe9016d09d72d40fdae2fd8ceac6b6234c7706214fd39c1cd1e609a0528c1993009b779b17422d0df92223018b32b4d1fa46e071723d6817e2486d003becc55f00a2646970667358221220018547813048566b72069ddf25df93acbd22efb3e30f5e28358cc4fbe9591d1f64736f6c63430008160033",
  "linkReferences": {},
  "deployedLinkReferences": {}
}