{
  "_format": "hh-sol-artifact-1",
  "contractName": "MODLPaymaster",
  "sourceName": "contracts/MODLPaymaster.sol",
  "abi": [
    {
      "inputs": [],
      "stateMutability": "nonpayable",
      "type": "constructor"
    },
    {
      "inputs": [
        {
          "internalType": "address",
          "name": "target",
          "type": "address"
        }
      ],
      "name": "AddressEmptyCode",
      "type": "error"
    },
    {
      "inputs": [
        {
          "internalType": "address",
          "name": "implementation",
          "type": "address"
        }
      ],
      "name": "ERC1967InvalidImplementation",
      "type": "error"
    },
    {
      "inputs": [],
      "name": "ERC1967NonPayable",
      "type": "error"
    },
    {
      "inputs": [],
      "name": "FailedCall",
      "type": "error"
    },
    {
      "inputs": [],
      "name": "InvalidInitialization",
      "type": "error"
    },
    {
      "inputs": [],
      "name": "NotInitializing",
      "type": "error"
    },
    {
      "inputs": [
        {
          "internalType": "address",
          "name": "owner",
          "type": "address"
        }
      ],
      "name": "OwnableInvalidOwner",
      "type": "error"
    },
    {
      "inputs": [
        {
          "internalType": "address",
          "name": "account",
          "type": "address"
        }
      ],
      "name": "OwnableUnauthorizedAccount",
      "type": "error"
    },
    {
      "inputs": [],
      "name": "ReentrancyGuardReentrantCall",
      "type": "error"
    },
    {
      "inputs": [],
      "name": "UUPSUnauthorizedCallContext",
      "type": "error"
    },
    {
      "inputs": [
        {
          "internalType": "bytes32",
          "name": "slot",
          "type": "bytes32"
        }
      ],
      "name": "UUPSUnsupportedProxiableUUID",
      "type": "error"
    },
    {
      "anonymous": false,
      "inputs": [
        {
          "indexed": false,
          "internalType": "address",
          "name": "newFeeManager",
          "type": "address"
        }
      ],
      "name": "FeeManagerUpdated",
      "type": "event"
    },
    {
      "anonymous": false,
      "inputs": [
        {
          "indexed": true,
          "internalType": "address",
          "name": "relayer",
          "type": "address"
        },
        {
          "indexed": true,
          "internalType": "address",
          "name": "user",
          "type": "address"
        },
        {
          "indexed": false,
          "internalType": "uint256",
          "name": "gasUsed",
          "type": "uint256"
        },
        {
          "indexed": false,
          "internalType": "uint256",
          "name": "totalPaid",
          "type": "uint256"
        }
      ],
      "name": "GasReimbursed",
      "type": "event"
    },
    {
      "anonymous": false,
      "inputs": [
        {
          "indexed": true,
          "internalType": "address",
          "name": "user",
          "type": "address"
        },
        {
          "indexed": true,
          "internalType": "address",
          "name": "target",
          "type": "address"
        },
        {
          "indexed": false,
          "internalType": "bytes",
          "name": "data",
          "type": "bytes"
        },
        {
          "indexed": false,
          "internalType": "uint256",
          "name": "gasUsed",
          "type": "uint256"
        }
      ],
      "name": "GaslessTransactionExecuted",
      "type": "event"
    },
    {
      "anonymous": false,
      "inputs": [
        {
          "indexed": false,
          "internalType": "uint64",
          "name": "version",
          "type": "uint64"
        }
      ],
      "name": "Initialized",
      "type": "event"
    },
    {
      "anonymous": false,
      "inputs": [
        {
          "indexed": true,
          "internalType": "address",
          "name": "previousOwner",
          "type": "address"
        },
        {
          "indexed": true,
          "internalType": "address",
          "name": "newOwner",
          "type": "address"
        }
      ],
      "name": "OwnershipTransferred",
      "type": "event"
    },
    {
      "anonymous": false,
      "inputs": [
        {
          "indexed": false,
          "internalType": "address",
          "name": "newRelayHub",
          "type": "address"
        }
      ],
      "name": "RelayHubUpdated",
      "type": "event"
    },
    {
      "anonymous": false,
      "inputs": [
        {
          "indexed": false,
          "internalType": "address",
          "name": "newForwarder",
          "type": "address"
        }
      ],
      "name": "TrustedForwarderUpdated",
      "type": "event"
    },
    {
      "anonymous": false,
      "inputs": [
        {
          "indexed": true,
          "internalType": "address",
          "name": "implementation",
          "type": "address"
        }
      ],
      "name": "Upgraded",
      "type": "event"
    },
    {
      "inputs": [],
      "name": "BPS_DENOMINATOR",
      "outputs": [
        {
          "internalType": "uint256",
          "name": "",
          "type": "uint256"
        }
      ],
      "stateMutability": "view",
      "type": "function"
    },
    {
      "inputs": [],
      "name": "UPGRADE_INTERFACE_VERSION",
      "outputs": [
        {
          "internalType": "string",
          "name": "",
          "type": "string"
        }
      ],
      "stateMutability": "view",
      "type": "function"
    },
    {
      "inputs": [
        {
          "internalType": "address",
          "name": "target",
          "type": "address"
        },
        {
          "internalType": "bytes",
          "name": "data",
          "type": "bytes"
        }
      ],
      "name": "executeGaslessTransaction",
      "outputs": [],
      "stateMutability": "nonpayable",
      "type": "function"
    },
    {
      "inputs": [],
      "name": "feeManager",
      "outputs": [
        {
          "internalType": "contract IFeeManager",
          "name": "",
          "type": "address"
        }
      ],
      "stateMutability": "view",
      "type": "function"
    },
    {
      "inputs": [],
      "name": "getFeeManager",
      "outputs": [
        {
          "internalType": "address",
          "name": "",
          "type": "address"
        }
      ],
      "stateMutability": "view",
      "type": "function"
    },
    {
      "inputs": [],
      "name": "getRelayHub",
      "outputs": [
        {
          "internalType": "address",
          "name": "",
          "type": "address"
        }
      ],
      "stateMutability": "view",
      "type": "function"
    },
    {
      "inputs": [],
      "name": "getTrustedForwarder",
      "outputs": [
        {
          "internalType": "address",
          "name": "",
          "type": "address"
        }
      ],
      "stateMutability": "view",
      "type": "function"
    },
    {
      "inputs": [
        {
          "internalType": "address",
          "name": "owner_",
          "type": "address"
        },
        {
          "internalType": "address",
          "name": "trustedForwarder_",
          "type": "address"
        }
      ],
      "name": "initialize",
      "outputs": [],
      "stateMutability": "nonpayable",
      "type": "function"
    },
    {
      "inputs": [],
      "name": "owner",
      "outputs": [
        {
          "internalType": "address",
          "name": "",
          "type": "address"
        }
      ],
      "stateMutability": "view",
      "type": "function"
    },
    {
      "inputs": [
        {
          "internalType": "address",
          "name": "user",
          "type": "address"
        },
        {
          "internalType": "uint256",
          "name": "gasUsed",
          "type": "uint256"
        },
        {
          "internalType": "uint256",
          "name": "",
          "type": "uint256"
        }
      ],
      "name": "payForGas",
      "outputs": [],
      "stateMutability": "nonpayable",
      "type": "function"
    },
    {
      "inputs": [
        {
          "internalType": "address",
          "name": "user",
          "type": "address"
        },
        {
          "internalType": "bytes",
          "name": "",
          "type": "bytes"
        },
        {
          "internalType": "uint256",
          "name": "gasUsed",
          "type": "uint256"
        }
      ],
      "name": "postRelayedCall",
      "outputs": [],
      "stateMutability": "nonpayable",
      "type": "function"
    },
    {
      "inputs": [
        {
          "internalType": "address",
          "name": "user",
          "type": "address"
        },
        {
          "internalType": "uint256",
          "name": "gasLimit",
          "type": "uint256"
        }
      ],
      "name": "preRelayedCall",
      "outputs": [
        {
          "internalType": "bytes",
          "name": "context",
          "type": "bytes"
        }
      ],
      "stateMutability": "view",
      "type": "function"
    },
    {
      "inputs": [],
      "name": "proxiableUUID",
      "outputs": [
        {
          "internalType": "bytes32",
          "name": "",
          "type": "bytes32"
        }
      ],
      "stateMutability": "view",
      "type": "function"
    },
    {
      "inputs": [],
      "name": "relayHub",
      "outputs": [
        {
          "internalType": "address",
          "name": "",
          "type": "address"
        }
      ],
      "stateMutability": "view",
      "type": "function"
    },
    {
      "inputs": [],
      "name": "renounceOwnership",
      "outputs": [],
      "stateMutability": "nonpayable",
      "type": "function"
    },
    {
      "inputs": [
        {
          "internalType": "address",
          "name": "feeManager_",
          "type": "address"
        }
      ],
      "name": "setFeeManager",
      "outputs": [],
      "stateMutability": "nonpayable",
      "type": "function"
    },
    {
      "inputs": [
        {
          "internalType": "address",
          "name": "relayHub_",
          "type": "address"
        }
      ],
      "name": "setRelayHub",
      "outputs": [],
      "stateMutability": "nonpayable",
      "type": "function"
    },
    {
      "inputs": [
        {
          "internalType": "address",
          "name": "newForwarder",
          "type": "address"
        }
      ],
      "name": "setTrustedForwarder",
      "outputs": [],
      "stateMutability": "nonpayable",
      "type": "function"
    },
    {
      "inputs": [
        {
          "internalType": "address",
          "name": "newOwner",
          "type": "address"
        }
      ],
      "name": "transferOwnership",
      "outputs": [],
      "stateMutability": "nonpayable",
      "type": "function"
    },
    {
      "inputs": [
        {
          "internalType": "address",
          "name": "newImplementation",
          "type": "address"
        },
        {
          "internalType": "bytes",
          "name": "data",
          "type": "bytes"
        }
      ],
      "name": "upgradeToAndCall",
      "outputs": [],
      "stateMutability": "payable",
      "type": "function"
    }
  ],
  "bytecode": "0x60a080604052346100cc57306080527ff0c57e16840df040f15088dc2f81fe391c3923bec73e23a9662efc9c229c6a009081549060ff8260401c166100bd57506001600160401b036002600160401b031982821601610078575b60405161117890816100d282396080518181816106c901526107a80152f35b6001600160401b031990911681179091556040519081527fc7f505b2f371ae2175ee4913f4499e1f2633a7b5936321eed1cdaeb6115181d290602090a1388080610059565b63f92ee8a960e01b8152600490fd5b600080fdfe60406080815260048036101561001457600080fd5b600091823560e01c9182630fb804a214610d57578263284755181461057a5782633f8d6eaf14610c02578263472d35b914610b58578263485cc9551461096b5782634f1ef2861461072d57826352d1902d146106b4578263715018a61461064a5782637bb05264146105a35782637bdf2ec71461057a5782638da5cb5b14610544578263ac963f2e146104af578263ad3cb1cc14610440578263ce1b815f14610418578263d0fb0203146103ef578263d323827014610223578263da7422281461017857508163e1a452181461015b578163f2d638261461012e575063f2fde38b146100ff57600080fd5b3461012b57602036600319011261012b5761012861011b610de7565b610123610fdc565b610f38565b80f35b80fd5b90503461015757816003193601126101575760025490516001600160a01b039091168152602090f35b5080fd5b905034610157578160031936011261015757602090516127108152f35b91503461021f57602036600319011261021f57610193610de7565b61019b610fdc565b6001600160a01b03169182156101e9575082546001600160a01b03191682178355519081527fa4388ecc389b1390354ae0c65a856c0d7dd4fb648419f5d3ac0b99e38f46fd1190602090a180f35b6020606492519162461bcd60e51b8352820152601160248201527024b73b30b634b2103337b93bb0b93232b960791b6044820152fd5b8280fd5b91503461021f578060031936011261021f5761023d610de7565b9060243567ffffffffffffffff81116103eb5761025d9036908501610e02565b919092610268610fac565b85546001600160a01b0390811633036103af5780821695861561037b5787805a948651888a823782818a810182815203925af16102a3610f08565b5015610338575a830392831161032557509183606092817f108c285742d99d2bf15f07dda9bed0d5930cee42bf376ea36336f0ed0e9d194396956102e561102a565b169784519685889687528601528585013782820184018990526020830152601f01601f19168101030190a360016000805160206111238339815191525580f35b634e487b7160e01b885260119052602487fd5b606490602085519162461bcd60e51b8352820152601a60248201527f4761736c657373207472616e73616374696f6e206661696c65640000000000006044820152fd5b606490602085519162461bcd60e51b8352820152600e60248201526d125b9d985b1a59081d185c99d95d60921b6044820152fd5b825162461bcd60e51b8152602081880152601660248201527513db9b1e48199bdc9dd85c99195c88185b1b1bddd95960521b6044820152606490fd5b8480fd5b83823461015757816003193601126101575760025490516001600160a01b039091168152602090f35b838234610157578160031936011261015757905490516001600160a01b039091168152602090f35b8382346101575781600319360112610157578051918183019083821067ffffffffffffffff83111761049c57506104989350815260058252640352e302e360dc1b602083015251918291602083526020830190610e84565b0390f35b634e487b7160e01b815260418552602490fd5b8382346101575780600319360112610157576104c9610de7565b9160018060a01b036104e081600154163314610ec4565b8251931660208401526024358284015242606084015260608352608083019383851067ffffffffffffffff86111761053157505082905260208252607f199061052c60a0820182610e84565b030190f35b634e487b7160e01b825260419052602490fd5b8382346101575781600319360112610157576000805160206111038339815191525490516001600160a01b039091168152602090f35b83823461015757816003193601126101575760015490516001600160a01b039091168152602090f35b91503461021f57602036600319011261021f576105be610de7565b6105c6610fdc565b6001600160a01b03169182156106165750600180546001600160a01b03191683179055519081527f4576732343f73b0a9f4f587a6532e657772e3515c90e8f86f1f81d84d6d1907190602090a180f35b6020606492519162461bcd60e51b8352820152600f60248201526e496e76616c6964206164647265737360881b6044820152fd5b833461012b578060031936011261012b57610663610fdc565b60008051602061110383398151915280546001600160a01b0319811690915581906001600160a01b03167f8be0079c531659141344cd1fd0a4f28419497f9722a3daafe3b4186f6b6457e08280a380f35b90833461012b578060031936011261012b57507f00000000000000000000000000000000000000000000000000000000000000006001600160a01b0316300361072057602090517f360894a13ba1a3210667c828492db98dca3e2076cc3735a920a3ca505d382bbc8152f35b5163703e46dd60e11b8152fd5b91508060031936011261021f57610742610de7565b90602493843567ffffffffffffffff8111610157573660238201121561015757808501359361077085610e68565b61077c85519182610e30565b85815260209586820193368a8383010111610922578186928b8a93018737830101526001600160a01b037f0000000000000000000000000000000000000000000000000000000000000000811630811490811561093d575b5061092d576107e1610fdc565b85516352d1902d60e01b81529083169680828a818b5afa91829187936108f9575b505061081e5750505050505191634c9c8ce360e01b8352820152fd5b86899689927f360894a13ba1a3210667c828492db98dca3e2076cc3735a920a3ca505d382bbc908181036108e45750853b156108cf5780546001600160a01b0319168317905551869392917fbc7cd75a20ee27fd9adebab32041f755214dbc6bffa90cc0225b39da2e5c2d3b8580a28251156108b35750506108af9382915190845af46108a9610f08565b9161109f565b5080f35b935093505050346108c357505080f35b63b398979f60e01b8152fd5b5051634c9c8ce360e01b815291820152859150fd5b848a91845191632a87526960e21b8352820152fd5b9080929350813d8311610926575b6109118183610e30565b810103126109225751903880610802565b8580fd5b503d610907565b855163703e46dd60e11b81528890fd5b9050817f360894a13ba1a3210667c828492db98dca3e2076cc3735a920a3ca505d382bbc54161415386107d4565b9091503461021f578160031936011261021f57610986610de7565b6001600160a01b03906024358281169190829003610922577ff0c57e16840df040f15088dc2f81fe391c3923bec73e23a9662efc9c229c6a009384549360ff85881c16159467ffffffffffffffff811680159081610b50575b6001149081610b46575b159081610b3d575b50610b2d5767ffffffffffffffff198116600117875585610b0e575b50821615610adf578215610ab25750610a3090610a2861105e565b61012361105e565b610a3861105e565b610a4061105e565b610a4861105e565b60016000805160206111238339815191525584546001600160a01b031916178455610a71578280f35b805468ff00000000000000001916905551600181527fc7f505b2f371ae2175ee4913f4499e1f2633a7b5936321eed1cdaeb6115181d290602090a138808280f35b606490602087519162461bcd60e51b835282015260076024820152660667764203d20360cc1b6044820152fd5b606490602087519162461bcd60e51b8352820152600960248201526806f776e6572203d20360bc1b6044820152fd5b68ffffffffffffffffff19166801000000000000000117865538610a0d565b875163f92ee8a960e01b81528390fd5b905015386109f1565b303b1591506109e9565b8791506109df565b91503461021f57602036600319011261021f57610b73610de7565b610b7b610fdc565b6001600160a01b0316918215610bcb5750600280546001600160a01b03191683179055519081527fe45f5e140399b0a7e12971ab020724b828fbed8ac408c420884dc7d1bbe506b490602090a180f35b6020606492519162461bcd60e51b8352820152601260248201527124b73b30b634b2102332b2a6b0b730b3b2b960711b6044820152fd5b91503461021f57606036600319011261021f57610c1d610de7565b6024359160018060a01b03610c3781600154163314610ec4565b610c3f610fac565b8060025416928315610d1f579060446020928885519687948593630bb03fdb60e21b855216809a8401528860248401525af18015610d15578590610cc3575b7ffad2c8d6b8439eee5387f33933d72e04042ef1f884eb37314c3bb21cc29921049250815193845260208401523392a360016000805160206111238339815191525580f35b506020823d602011610d0d575b81610cdd60209383610e30565b810103126103eb577ffad2c8d6b8439eee5387f33933d72e04042ef1f884eb37314c3bb21cc29921049151610c7e565b3d9150610cd0565b81513d87823e3d90fd5b825162461bcd60e51b8152602081880152601260248201527111995953585b9859d95c881b9bdd081cd95d60721b6044820152606490fd5b91503461021f57606036600319011261021f57610d72610de7565b916024359067ffffffffffffffff82116103eb57610d9291369101610e02565b50507f108c285742d99d2bf15f07dda9bed0d5930cee42bf376ea36336f0ed0e9d1943606060018060a01b03610dcd81600154163314610ec4565b85845194808652850152604435602085015230941692a380f35b600435906001600160a01b0382168203610dfd57565b600080fd5b9181601f84011215610dfd5782359167ffffffffffffffff8311610dfd5760208381860195010111610dfd57565b90601f8019910116810190811067ffffffffffffffff821117610e5257604052565b634e487b7160e01b600052604160045260246000fd5b67ffffffffffffffff8111610e5257601f01601f191660200190565b919082519283825260005b848110610eb0575050826000602080949584010152601f8019910116010190565b602081830181015184830182015201610e8f565b15610ecb57565b60405162461bcd60e51b815260206004820152601560248201527413db9b1e4814995b185e521d5888185b1b1bddd959605a1b6044820152606490fd5b3d15610f33573d90610f1982610e68565b91610f276040519384610e30565b82523d6000602084013e565b606090565b6001600160a01b03908116908115610f935760008051602061110383398151915280546001600160a01b031981168417909155167f8be0079c531659141344cd1fd0a4f28419497f9722a3daafe3b4186f6b6457e0600080a3565b604051631e4fbdf760e01b815260006004820152602490fd5b6000805160206111238339815191526002815414610fca5760029055565b604051633ee5aeb560e01b8152600490fd5b600080516020611103833981519152546001600160a01b039081168161100061102a565b16036110095750565b60249061101461102a565b60405163118cdaa760e01b815291166004820152fd5b6000546001600160a01b0316331480611053575b1561104f5736601319013560601c90565b3390565b50601436101561103e565b60ff7ff0c57e16840df040f15088dc2f81fe391c3923bec73e23a9662efc9c229c6a005460401c161561108d57565b604051631afcd79f60e31b8152600490fd5b906110c657508051156110b457805190602001fd5b60405163d6bda27560e01b8152600490fd5b815115806110f9575b6110d7575090565b604051639996b31560e01b81526001600160a01b039091166004820152602490fd5b50803b156110cf56fe9016d09d72d40fdae2fd8ceac6b6234c7706214fd39c1cd1e609a0528c1993009b779b17422d0df92223018b32b4d1fa46e071723d6817e2486d003becc55f00a2646970667358221220f290d9259b4c8c7f3bb85e2da26e27a140e1957c8ad94ef45bd9784553f6269164736f6c63430008160033",
  "linkReferences": {},
  "deployedLinkReferences": {}
}